:040000003CEF1DF0C4
:100800000054656D70657261747572613A00252ED1
:10081000326600494E46004E414E00696E66006EDB
:09082000616E006C6600430000EB
:10082A00000E0001756F000E746F49C086F04AC051
:10083A0087F04BC088F04CC089F089BF29EF04F0DB
:10084A0027EF04F03FEF04F0000E756F010E746F8E
:10085A0086C001F087C002F088C003F089C004F0A6
:10086A00F9EC1EF001C086F002C087F003C088F0E0
:10087A0004C089F0000E00018D6F000E8C6FE9C074
:10088A0078F0EAC079F074517511D8A44FEF04F0EA
:10089A0051EF04F058EF04F0EDA556EF04F058EFCD
:1008AA0004F072EF04F074517511D8A45FEF04F0EC
:1008BA0061EF04F067EF04F0000E616F2B0E606FBA
:1008CA006BEF04F0000E616F2D0E606F60C000F1D7
:1008DA008C4B8D2B7807D8A0790786C001F087C08A
:1008EA0002F088C003F089C004F0DCEC17F00104C0
:1008FA000210D8A483EF04F085EF04F0D0EF04F0DF
:10090A00BF0E4E6EFF0E4F6E4D50506E516A4E50D6
:10091A0050264F505122515007E11A0E505CD8B060
:10092A0099EF04F09BEF04F0AAEF04F0000E000127
:10093A008C25016E010E8D21026E130E036E080EB8
:10094A00046ED1EC1DF0B7EF04F0000E00018C2507
:10095A00016E010E8D21026E1B0E036E080E046ECF
:10096A00D1EC1DF00001FD0E7827FF0E792347C058
:10097A0011F048C012F0000E136E010E146E78C00A
:10098A0015F079C016F012EC1AF011C047F012C037
:10099A0048F01BEF0AF086C001F087C002F088C059
:1009AA0003F089C004F0DCEC17F001500210D8A45F
:1009BA00E1EF04F0E3EF04F017EF05F0BF0E4E6E1F
:1009CA00FF0E4F6E4D50506E516A4E5050264F508A
:1009DA005122515007E11A0E505CD8B0F7EF04F0DB
:1009EA00F9EF04F008EF05F0000E00018C25016E06
:1009FA00010E8D21026E170E036E080E046ED1ECE5
:100A0A001DF0B7EF04F0000E00018C25016E010EF7
:100A1A008D21026E1F0E036E080E046ED1EC1DF0BE
:100A2A00B7EF04F0000E00018E6F000E8F6F800E7C
:100A3A00906F3F0E916F000E8B6F000E8A6F86C00B
:100A4A0001F087C002F088C003F089C004F0000EEC
:100A5A00056E000E066E000E076E000E086E88EC1C
:100A6A001BF0D8B03BEF05F03DEF05F0C0EF05F005
:100A7A005CEF05F08EC001F08FC002F090C003F069
:100A8A0091C004F0000E056E000E066E200E076E71
:100A9A00410E086E95EC0EF001C08EF002C08FF088
:100AAA0003C090F004C091F000018A4B8B2B86C0E2
:100ABA001AF087C01BF088C01CF089C01DF0000E18
:100ACA00056E000E066E200E076E410E086E8EC071
:100ADA0001F08FC002F090C003F091C004F095ECD1
:100AEA000EF001C01EF002C01FF003C020F004C0C7
:100AFA0021F05AEC17F0D8B085EF05F087EF05F032
:100B0A003FEF05F0A7EF05F08EC01AF08FC01BF07B
:100B1A0090C01CF091C01DF0000E1E6E000E1F6EDC
:100B2A00200E206E410E216EAAEC10F01AC08EF033
:100B3A001BC08FF01CC090F01DC091F000018A0705
:100B4A00D8A08B0786C01AF087C01BF088C01CF09B
:100B5A0089C01DF08EC01EF08FC01FF090C020F01B
:100B6A0091C021F05AEC17F0D8A0BEEF05F0C0EF03
:100B7A0005F089EF05F04DC007F0086A75EC1EF024
:100B8A00075000017B6F7BC07AF0670E7B19D8A4EF
:100B9A00D1EF05F0D3EF05F0F9EF05F0EB51EC11C9
:100BAA00D8A4DAEF05F0DCEF05F0E0EF05F0000E6F
:100BBA00EC6F010EEB6FECBFEDEF05F0EC5106E1C7
:100BCA00EB05D8B0EBEF05F0EDEF05F0F3EF05F02C
:100BDA00000E776F060E766F02EF06F0EBC076F026
:100BEA00ECC077F002EF06F0ECBFFEEF05F000EF85
:100BFA0006F0EDEF05F0F3EF05F0670E7B19D8A4C8
:100C0A0009EF06F00BEF06F03AEF06F08BAF19EF9B
:100C1A0006F0FC0E8A5DFF0E8B59D8A017EF06F07E
:100C2A0019EF06F038EF06F0FF0E4E6EFF0E4F6E0C
:100C3A0076C050F077C051F04E5050264F50512296
:100C4A008A51505C5150800A526E8B51800A525818
:100C5A00D8A032EF06F034EF06F038EF06F0660E51
:100C6A007A6F3AEF06F0650E7A6F76C06CF077C04D
:100C7A006DF0670E7B19D8A445EF06F047EF06F032
:100C8A0057EF06F0660E7A19D8A44EEF06F050EF29
:100C9A0006F059EF06F08BBF57EF06F055EF06F056
:100CAA0059EF06F06C4B6D2B660E7A19D8A460EFDB
:100CBA0006F062EF06F082EF06F08BBF69EF06F0EE
:100CCA0067EF06F075EF06F0000E8E6F000E8F6F5D
:100CDA00800E906F3F0E916F000E8B6F000E8A6F21
:100CEA00670E7B19D8B47CEF06F07EEF06F082EF30
:100CFA0006F08A516C278B516D23000E856F000E0A
:100D0A00846F86C07CF087C07DF088C07EF089C081
:100D1A007FF08EC06EF08FC06FF090C070F091C0FF
:100D2A0071F013EF07F07CC01AF07DC01BF07EC093
:100D3A001CF07FC01DF08EC01EF08FC01FF090C047
:100D4A0020F091C021F0AAEC10F01AC033F01BC0B9
:100D5A0034F01CC035F01DC036F077EC12F033C009
:100D6A0080F034C081F035C082F036C083F080C094
:100D7A0001F081C002F082C003F083C004F0D7EC16
:100D8A0016F001C072F002C073F07CC01AF07DC088
:100D9A001BF07EC01CF07FC01DF08EC005F08FC016
:100DAA0006F090C007F091C008F080C001F081C041
:100DBA0002F082C003F083C004F095EC0EF001C08B
:100DCA001EF002C01FF003C020F004C021F098EC0E
:100DDA001EF01AC07CF01BC07DF01CC07EF01DC046
:100DEA007FF08EC01AF08FC01BF090C01CF091C02B
:100DFA001DF0000E1E6E000E1F6E200E206E410E9C
:100E0A00216EAAEC10F01AC08EF01BC08FF01CC025
:100E1A0090F01DC091F00001844B852B6C51845DCC
:100E2A008551800A4E6E6D51800A4E58D8A020EF27
:100E3A0007F022EF07F098EF06F08EC001F08FC09E
:100E4A0002F090C003F091C004F0000E056E000E8F
:100E5A00066EA00E076E400E086E95EC0EF001C0ED
:100E6A0080F002C081F003C082F004C083F07CC02D
:100E7A001AF07DC01BF07EC01CF07FC01DF080C040
:100E8A001EF081C01FF082C020F083C021F05AEC0E
:100E9A0017F0D8B053EF07F055EF07F060EF07F0FF
:100EAA00000E0001806F000E816F000E826F000E2F
:100EBA00836F89EF07F07CC001F07DC002F07EC02D
:100ECA0003F07FC004F080C005F081C006F082C044
:100EDA0007F083C008F088EC1BF0D8A077EF07F082
:100EEA0079EF07F089EF07F0000172B17FEF07F0A1
:100EFA0081EF07F089EF07F0000E806F000E816F17
:100F0A00000E826F000E836F86C001F087C002F068
:100F1A0088C003F089C004F080C005F081C006F0E3
:100F2A0082C007F083C008F01CEC0AF001C07CF014
:100F3A0002C07DF003C07EF004C07FF07CC01AF0CE
:100F4A007DC01BF07EC01CF07FC01DF0000E056E38
:100F5A00000E066E200E076E410E086E6EC001F07E
:100F6A006FC002F070C003F071C004F095EC0EF08F
:100F7A0001C01EF002C01FF003C020F004C021F01F
:100F8A005AEC17F0D8A0CCEF07F0CEEF07F0F7EF46
:100F9A0007F000018A4B8B2B6EC001F06FC002F084
:100FAA0070C003F071C004F0000E056E000E066EEC
:100FBA00200E076E410E086E95EC0EF001C06EF021
:100FCA0002C06FF003C070F004C071F0660E000139
:100FDA007A19D8A4F3EF07F0F5EF07F0F7EF07F067
:100FEA006C4B6D2B6EC08EF06FC08FF070C090F09E
:100FFA0071C091F0650E00017A19D8B407EF08F0B4
:10100A0009EF08F00FEF08F08AC06AF08BC06BF0A6
:10101A0013EF08F0000E6B6F000E6A6F000E696F17
:10102A00000E686F000E676F000E666F000E856F08
:10103A00000E846F0EEF09F07CC01AF07DC01BF021
:10104A007EC01CF07FC01DF08EC01EF08FC01FF046
:10105A0090C020F091C021F0AAEC10F01AC033F031
:10106A001BC034F01CC035F01DC036F077EC12F00E
:10107A0033C080F034C081F035C082F036C083F0CE
:10108A0080C001F081C002F082C003F083C004F086
:10109A00D7EC16F001C072F002C073F00001EDB98E
:1010AA0059EF08F05BEF08F078EF08F0725173110E
:1010BA00D8A462EF08F064EF08F078EF08F0670E42
:1010CA007B19D8A46BEF08F06DEF08F078EF08F001
:1010DA006BBF74EF08F072EF08F078EF08F0664B18
:1010EA00672BC2EF08F068516911D8A47FEF08F0A6
:1010FA0081EF08F0ABEF08F06BBF88EF08F086EFDE
:10110A0008F0ABEF08F0000E8C25D96E010E8D2188
:10111A00DA6E2E0EDF6E8C4B8D2B7807D8A07907EE
:10112A00000E696F010E686FABEF08F0000E8C2598
:10113A00D96E010E8D21DA6E300EDF6E8C4B8D2B3F
:10114A007807D8A079076607D8A06707665167119C
:10115A00D8A4B2EF08F0B4EF08F09BEF08F0000E45
:10116A008C25D96E010E8D21DA6E7251300FDF6E29
:10117A008C4B8D2B7807D8A079077CC01AF07DC0DC
:10118A001BF07EC01CF07FC01DF08EC005F08FC022
:10119A0006F090C007F091C008F080C001F081C04D
:1011AA0002F082C003F083C004F095EC0EF001C097
:1011BA001EF002C01FF003C020F004C021F098EC1A
:1011CA001EF01AC07CF01BC07DF01CC07EF01DC052
:1011DA007FF08EC01AF08FC01BF090C01CF091C037
:1011EA001DF0000E1E6E000E1F6E200E206E410EA8
:1011FA00216EAAEC10F01AC08EF01BC08FF01CC032
:10120A0090F01DC091F000016A07D8A06B07844BCB
:10121A00852B6C51845D8551800A4E6E6D51800A12
:10122A004E58D8B01BEF09F01DEF09F02BEF09F06B
:10123A008DBF29EF09F08D5109E14B0E8C5DD8A0C5
:10124A0029EF09F02BEF09F021EF08F06851691135
:10125A00D8A432EF09F034EF09F045EF09F0EDA90F
:10126A0039EF09F03BEF09F045EF09F0000E8C2544
:10127A00D96E010E8D21DA6E2E0EDF6E8C4B8D2B00
:10128A00000E8C25D96E010E8D21DA6E000EDF6EEE
:10129A00650E7A19D8A454EF09F056EF09F0BCEF9D
:1012AA0004F0000E856F4F0E846F000E8425D96EF0
:1012BA00010E8521DA6E000EDF6E000E756F000ECC
:1012CA00746F8BBF6DEF09F06BEF09F075EF09F0E2
:1012DA00000E756F010E746F8A6D8B1FD8B08B2B41
:1012EA00000E776F020E766FA6EF09F08407D8A07A
:1012FA008507000E8425D96E010E8521DA6E8AC013
:10130A0001F08BC002F0000E046E0A0E036E30EC80
:10131A001BF00150300FDF6E8AC001F08BC002F063
:10132A00000E046E0A0E036E75EC1AF001C08AF004
:10133A0002C08BF000017607D8A077077807D8A0FB
:10134A0079078A518B11D8A4ADEF09F0AFEF09F0F4
:10135A007BEF09F077BFBCEF09F0775106E176051C
:10136A00D8B0BAEF09F0BCEF09F07BEF09F08407B7
:10137A00D8A0850774517511D8A4C6EF09F0C8EF33
:10138A0009F0CEEF09F0000E636F2B0E626FD2EFF9
:10139A0009F0000E636F2D0E626F000E8425D96E60
:1013AA00010E8521DA6E62C0DFFF7807D8A07907BF
:1013BA008407D8A08507BF0E4E6EFF0E4F6E4D50A4
:1013CA00506E516A4E5050264F505122515009E1E9
:1013DA001A0E505CD8A0F4EF09F0F6EF09F0FCEF12
:1013EA0009F0000E656F650E646F00EF0AF0000EDB
:1013FA00656F450E646F000E8425D96E010E852136
:10140A00DA6E64C0DFFF7807D8A07907000E8C2552
:10141A00016E010E8D21026E000E8425036E010EEF
:10142A008521046ED1EC1DF0BCEF04F012000450CB
:10143A00800B0D6E045004240F6E03AE27EF0AF0E2
:10144A0029EF0AF02AEF0AF00F800F50D8B430EFD4
:10145A000AF032EF0AF047EF0AF00F28D8A438EF63
:10146A000AF03AEF0AF042EF0AF0000E016E000E9F
:10147A00026E000E036E000E046E038E000E046EE2
:10148A004FEF0AF0000E016E000E026E000E036EA0
:10149A00000E046E0850800B0E6E0D500E18D8B454
:1014AA0059EF0AF05BEF0AF05CEF0AF00D8C085076
:1014BA0008240E6E07AE64EF0AF066EF0AF067EFD3
:1014CA000AF00E800E50D8B46DEF0AF06FEF0AF0F2
:1014DA0084EF0AF00E28D8A475EF0AF077EF0AF025
:1014EA007FEF0AF0000E056E000E066E000E076E04
:1014FA00000E086E078E000E086E8CEF0AF0000EC2
:10150A00056E000E066E000E076E000E086E0F5076
:10151A000E5CD8B093EF0AF095EF0AF0BCEF0AF030
:10152A000DAC9AEF0AF09CEF0AF09EEF0AF0800EDB
:10153A000D1A0FC010F00EC00FF010C00EF001C04F
:10154A0010F005C001F010C005F002C010F006C08E
:10155A0002F010C006F003C010F007C003F010C07C
:10156A0007F004C010F008C004F010C008F0000E24
:10157A00106E0F500EC009F00A6A095E000E0A5A70
:10158A000ABED1EF0AF00A5009E11A0E095CD8A086
:10159A00D1EF0AF0D3EF0AF00AEF0BF00150021074
:1015AA0003100410D8A4DCEF0AF0DFEF0AF0010EF2
:1015BA00E0EF0AF0000E106E000E016E000E026ED1
:1015CA00000E036E000E046E0EC00FF013EF0BF048
:1015DA0010A0F2EF0AF0F4EF0AF0FAEF0AF0D8904E
:1015EA0010300109106EFCEF0AF0D890103201A0F9
:1015FA0001EF0BF003EF0BF004EF0BF0108E043445
:10160A0004320332023201320F2A0E500F5CD8A084
:10161A0011EF0BF013EF0BF0EDEF0AF00DBC18EF22
:10162A000BF01AEF0BF05AEF0BF00F50D8A420EF83
:10163A000BF022EF0BF02CEF0BF0000E016E000EF8
:10164A00026E000E036E000E046E7BEF0CF0055066
:10165A00012606500222075003220850042204A041
:10166A0039EF0BF03BEF0BF0E7EF0BF010A040EF78
:10167A000BF042EF0BF048EF0BF0D8901030010955
:10168A00106E4AEF0BF0D890103201A04FEF0BF01A
:10169A0051EF0BF052EF0BF0108E04340432033288
:1016AA00023201320F2AE7EF0BF00550015C0650B7
:1016BA000258075003580450800A096E0850800ADD
:1016CA000958D8B06BEF0BF06DEF0BF098EF0BF0F9
:1016DA000150055C096E025006580A6E03500758FD
:1016EA000B6E045008580C6EFF0E0924016EFF0E93
:1016FA000A20026EFF0E0B20036EFF0E0C20046EF2
:10170A00800E0D1A106C1050D8A48EEF0BF090EFCB
:10171A000BF0A0EF0BF0010E0126000E02220322AD
:10172A000422A0EF0BF00550015E0650025A075042
:10173A00035A0850045A0150021003100410D8A486
:10174A00A9EF0BF0ABEF0BF0E0EF0BF01050D8A4C1
:10175A00B1EF0BF0B3EF0BF0E0EF0BF0000E016E00
:10176A00000E026E000E036E000E046E7BEF0CF08C
:10177A00D890013602360336043610AEC7EF0BF0A6
:10178A00C9EF0BF0CAEF0BF0018010A0CFEF0BF0FE
:10179A00D1EF0BF0D5EF0BF0D8801036D7EF0BF066
:1017AA00D89010360F50D8B4DDEF0BF0DFEF0BF006
:1017BA00E0EF0BF00F0603AEE5EF0BF0E7EF0BF0EF
:1017CA00BDEF0BF0000E0E6E10AEEEEF0BF0F0EF69
:1017DA000BF008EF0CF010C009F07F0E0916D8B410
:1017EA00F9EF0BF0FBEF0BF0FFEF0BF0010E0E6EB3
:1017FA0008EF0CF001A004EF0CF006EF0CF008EF74
:10180A000CF0FBEF0BF00E50D8B40EEF0CF010EF0B
:10181A000CF03BEF0CF0010E0126000E022203220F
:10182A00042204A01BEF0CF01DEF0CF03BEF0CF0B0
:10183A0001C009F002C00AF003C00BF004C00CF0AA
:10184A000C340C320B320A32093209C001F00AC0D8
:10185A0002F00BC003F00CC004F00F28D8B438EF24
:10186A000CF03AEF0CF03BEF0CF00F2A0F28D8B42B
:10187A0041EF0CF043EF0CF04BEF0CF00F50D8A4F3
:10188A0049EF0CF04BEF0CF05DEF0CF0000E016E1F
:10189A00000E026E000E036E000E046E0F50D8A4E6
:1018AA0059EF0CF05BEF0CF05DEF0CF0000E0D6ED3
:1018BA000FA062EF0CF064EF0CF067EF0CF0038EF0
:1018CA0068EF0CF0039ED8900F30046E0DAE70EFE7
:1018DA000CF072EF0CF073EF0CF0048E01C001F003
:1018EA0002C002F003C003F004C004F0120055C0A5
:1018FA00D9FF56C0DAFFDECFF6FFDDCFF7FF0800CB
:10190A00F550250AD8A48CEF0CF08EEF0CF079EF85
:10191A000EF055C0D9FF56C0DAFFDE2A000EDD22CE
:10192A00000E0001EA6F000EE96FE9C0EDF0EAC0AF
:10193A00EEF0EB69EC6955C0D9FF56C0DAFFDECF8D
:10194A00F6FFDDCFF7FF0800F5502E0AD8A4B0EF56
:10195A000CF0B2EF0CF022EF0DF0000EEC6F000E5F
:10196A00EB6F55C0D9FF56C0DAFFDE2A000EDD2222
:10197A0055C0D9FF56C0DAFFDECFF6FFDDCFF7FF3D
:10198A000800F5502A0AD8A4CDEF0CF0CFEF0CF0DE
:10199A00ECEF0CF055C0D9FF56C0DAFFDE2A000E74
:1019AA00DD2257C0D9FF58C0DAFFDFCF59F0020E47
:1019BA00DE26DFCF5AF0000EDD2259C0D9FF5AC009
:1019CA00DAFFDECFEBF0DDCFECF022EF0DF055C001
:1019DA00D9FF56C0DAFFDECF08F0DDCF09F02CECD4
:1019EA0016F008C0EBF009C0ECF003EF0DF055C09B
:1019FA00D9FF56C0DAFFDE2A000EDD22D00E596E5C
:101A0A00FF0E5A6E55C0D9FF56C0DAFFDECFF6FF79
:101A1A00DDCFF7FF0800F5505B6E5C6A59505B2614
:101A2A005A505C225C5009E10A0E5B5CD8A020EF98
:101A3A000DF022EF0DF0FCEF0CF055C0D9FF56C0A7
:101A4A00DAFFDECFF6FFDDCFF7FF0800F550076EAD
:101A5A00086A75EC1EF007500001966F9651D8B4CB
:101A6A0039EF0DF03BEF0DF075EF0DF055C0D9FFD2
:101A7A0056C0DAFFDECF59F0DDCF5AF0010E5926F3
:101A8A00000E5A2259C0F6FF5AC0F7FF0800F55057
:101A9A00076E086A75EC1EF007500001976F9751A0
:101AAA00D8B45AEF0DF05CEF0DF075EF0DF055C09C
:101ABA00D9FF56C0DAFFDECF59F0DDCF5AF0020E59
:101ACA005926000E5A2259C0F6FF5AC0F7FF0800DD
:101ADA00F550076E086A75EC1EF007500001986F02
:101AEA00660E9619D8A47CEF0DF07EEF0DF0BEEFCE
:101AFA000DF055C0D9FF56C0DAFFDECFF6FFDDCFB5
:101B0A00F7FF0800F5CF99F055C0D9FF56C0DAFFA4
:101B1A00DE2A000EDD2257C0D9FF58C0DAFFDFCF18
:101B2A0059F0040EDE26DFCF5AF0000EDD2259C02E
:101B3A00D9FF5AC0DAFFDECF92F0DECF93F0DECFC4
:101B4A0094F0DECF95F053C047F054C048F092C0ED
:101B5A0049F093C04AF094C04BF095C04CF099C03C
:101B6A004DF015EC04F047C053F048C054F094EF20
:101B7A000EF0960E016E000E026E230E036E080E14
:101B8A00046E000E066E020E056ED8EC18F00150B7
:101B9A000210D8A4D3EF0DF0D5EF0DF043EF0EF0FD
:101BAA0055C0D9FF56C0DAFFDECF59F0DDCF5AF063
:101BBA00010E5926000E5A2259C0F6FF5AC0F7FFE5
:101BCA000800F5CF99F0BF0E596EFF0E5A6E55C038
:101BDA00D9FF56C0DAFFDECFF6FFDDCFF7FF0800E8
:101BEA00F5505B6E5C6A59505B265A505C225C5019
:101BFA0007E11A0E5B5CD8B005EF0EF007EF0EF0A6
:101C0A0021EF0EF057C0D9FF58C0DAFFDFCF59F0E5
:101C1A00040EDE26DFCF5AF0000EDD2259C0D9FFAE
:101C2A005AC0DAFFDECF92F0DECF93F0DECF94F027
:101C3A00DECF95F039EF0EF057C0D9FF58C0DAFF62
:101C4A00DFCF59F0040EDE26DFCF5AF0000EDD2278
:101C5A0059C0D9FF5AC0DAFFDECF92F0DECF93F037
:101C6A00DECF94F0DECF95F0020E55C0D9FF56C0F4
:101C7A00DAFFDE26000EDD22A8EF0DF055C0D9FFEF
:101C8A0056C0DAFFDECFF6FFDDCFF7FF0800F550CA
:101C9A00250AD8A453EF0EF055EF0EF06CEF0EF0B4
:101CAA0055C0D9FF56C0DAFFDE2A000EDD22000E2B
:101CBA00026E250E016E53C003F054C004F0ADEC61
:101CCA0019F0000E546E010E536E94EF0EF055C0CB
:101CDA00D9FF56C0DAFFDE2A000EDD22000E546E4E
:101CEA00000E536E94EF0EF055C0D9FF56C0DAFFBE
:101CFA00DECFF6FFDDCFF7FF0800F550016E026A6E
:101D0A0053C003F054C004F0ADEC19F055C0D9FF2C
:101D1A0056C0DAFFDE2A000EDD2266EF0EF0120050
:101D2A000450800B0D6E04500424136E03AEA0EF12
:101D3A000EF0A2EF0EF0A3EF0EF013801350D8B4FA
:101D4A00A9EF0EF0ABEF0EF0BEEF0EF01328D8A4F9
:101D5A00B1EF0EF0B3EF0EF0BBEF0EF0000E016E16
:101D6A00000E026E000E036E000E046E038EC6EFA6
:101D7A000EF0000E016E000E026E000E036E000ED3
:101D8A00046E0850800B0D1A08500824126E07AE14
:101D9A00D1EF0EF0D3EF0EF0D4EF0EF01280125006
:101DAA00D8B4DAEF0EF0DCEF0EF0EFEF0EF01228F7
:101DBA00D8A4E2EF0EF0E4EF0EF0ECEF0EF0000E16
:101DCA00056E000E066E000E076E000E086E078E78
:101DDA00F7EF0EF0000E056E000E066E000E076E8F
:101DEA00000E086E1250D8B4FDEF0EF0FFEF0EF0A1
:101DFA0007EF0FF01350D8A405EF0FF007EF0FF01D
:101E0A0011EF0FF0000E016E000E026E000E036E4F
:101E1A00000E046EA9EF10F007500102F3CF18F07C
:101E2A00F4CF19F018500E6E0F6A106A116A195021
:101E3A00146E156A166A176A06500202F3CF18F072
:101E4A00F4CF19F018500E26000E0F22102211227C
:101E5A0019501426000E15221622172205500302C5
:101E6A00F3CF18F0F4CF19F018500E26000E0F22F7
:101E7A001022112219501426000E1522162217229A
:101E8A0010C011F00FC010F00EC00FF00E6A05500E
:101E9A000202F3CF18F0F4CF19F018500E26195099
:101EAA000F22000E1022000E112206500102F3CF5B
:101EBA0018F0F4CF19F018500E2619500F22000E00
:101ECA001022000E112210C011F00FC010F00EC027
:101EDA000FF00E6A05500102F3CF18F0F4CF19F093
:101EEA0018500E2619500F22000E1022000E112231
:101EFA0007500202F3CF18F0F4CF19F01850142645
:101F0A0019501522000E1622000E1722065003023F
:101F1A00F3CF18F0F4CF19F01850142619501522DF
:101F2A00000E1622000E172207500302F3CF18F0F4
:101F3A00F4CF19F01850096E19500A6E0B6A0C6A20
:101F4A000BC00CF00AC00BF009C00AF0096A09506C
:101F5A0014260A5015220B5016220C5017220EC0B6
:101F6A0009F00FC00AF010C00BF011C00CF0190EE6
:101F7A00C4EF0FF0D8900C320B320A320932E82E35
:101F8A00BFEF0FF0095014260A5015220B501622E3
:101F9A000C50172210C011F00FC010F00EC00FF035
:101FAA000E6A125013C009F00A6A0926000E0A22A4
:101FBA00820E0924186EFF0E0A20196EFAEF0FF02E
:101FCA00D890143615361636173611AEEFEF0FF0D5
:101FDA00F1EF0FF0F2EF0FF01480D8900E360F36B3
:101FEA00103611361806D8A0190616AEFFEF0FF0F4
:101FFA0001EF10F0E5EF0FF0000E126E11AE08EFD0
:10200A0010F00AEF10F02EEF10F0FF0E0E14096E0A
:10201A00FF0E0F140A6EFF0E10140B6E7F0E1114B2
:10202A000C6E09500A100B100C10D8B41FEF10F0E8
:10203A0021EF10F025EF10F0010E126E2EEF10F0C6
:10204A0014A02AEF10F02CEF10F02EEF10F021EF71
:10205A0010F01250D8B434EF10F036EF10F05AEFF7
:10206A0010F0010E1426000E15221622172217A0B0
:10207A0041EF10F043EF10F05AEF10F014C009F0DE
:10208A0015C00AF016C00BF017C00CF00C340C3255
:10209A000B320A32093209C014F00AC015F00BC01B
:1020AA0016F00CC017F0184A192A19BE65EF10F07D
:1020BA00195008E11828D8A065EF10F067EF10F062
:1020CA0071EF10F0000E146E000E156E800E166E73
:1020DA007F0E176E9FEF10F019BE7EEF10F01950A9
:1020EA0006E11804D8B07CEF10F07EEF10F08AEF0A
:1020FA0010F0000E146E000E156E000E166E000E15
:10210A00176E000E0D6E9FEF10F018C013F0FF0E41
:10211A001416FF0E15167F0E1616000E171613A0AC
:10212A0099EF10F09BEF10F09CEF10F0168ED890FC
:10213A001330176E0D50171214C001F015C002F0BB
:10214A0016C003F017C004F012001D50800B2A6E4F
:10215A001D501D24316E1CAEB5EF10F0B7EF10F014
:10216A00B8EF10F031803150D8B4BEEF10F0C0EFA4
:10217A0010F0D5EF10F03128D8A4C6EF10F0C8EF50
:10218A0010F0D0EF10F0000E1A6E000E1B6E000E4B
:10219A001C6E000E1D6E1C8E000E1D6EDDEF10F003
:1021AA00000E1A6E000E1B6E000E1C6E000E1D6EC7
:1021BA002150800B2A1A21502124326E20AEE8EFDA
:1021CA0010F0EAEF10F0EBEF10F032803250D8B492
:1021DA00F1EF10F0F3EF10F008EF11F03228D8A465
:1021EA00F9EF10F0FBEF10F003EF11F0000E1E6E86
:1021FA00000E1F6E000E206E000E216E208E000E45
:10220A00216E10EF11F0000E1E6E000E1F6E000EF2
:10221A00206E000E216E1E501F1020102110D8A40F
:10222A0019EF11F01BEF11F033EF11F0000E1A6ED7
:10223A00000E1B6E000E1C6E000E1D6E800E1C1210
:10224A007F0E1D122A501D121AC01AF01BC01BF055
:10225A001CC01CF01DC01DF076EF12F03150D8A43E
:10226A0039EF11F03BEF11F045EF11F0000E1A6E45
:10227A00000E1B6E000E1C6E000E1D6E76EF12F025
:10228A00325031C022F0236A225E000E235A7F0E9A
:10229A0022242B6E000E23202C6E1AC026F01BC09F
:1022AA0027F01CC028F01DC029F0000E1A6E000E7F
:1022BA001B6E000E1C6E000E1D6E000E2D6E000EA3
:1022CA002E6E000E2F6E000E306E000E326EA6EFCE
:1022DA0011F03250D8B474EF11F076EF11F08DEF9F
:1022EA0011F0D8902636273628362936D8901A364D
:1022FA001B361C361D3630AE85EF11F087EF11F014
:10230A0088EF11F01A80D8902D362E362F363036B7
:10231A001E50265C1F5027582050285821502958F3
:10232A00D8A09AEF11F09CEF11F0A5EF11F0308CC4
:10233A001E50265E1F50275A2050285A2150295ACB
:10234A00322A190E3264ACEF11F0AEEF11F06EEFD3
:10235A0011F02650271028102910D8B4B7EF11F021
:10236A00B9EF11F0D1EF11F02D80D1EF11F0D89023
:10237A001A361B361C361D3630AEC6EF11F0C8EFC2
:10238A0011F0C9EF11F01A80D8902D362E362F365B
:10239A0030362B06D8A02C061CAED6EF11F0D8EF9B
:1023AA0011F0BCEF11F0000E326E30AEDFEF11F01B
:1023BA00E1EF11F005EF12F0FF0E2D14226EFF0E61
:1023CA002E14236EFF0E2F14246E7F0E3014256EEA
:1023DA002250231024102510D8B4F6EF11F0F8EF8C
:1023EA0011F0FCEF11F0010E326E05EF12F01AA097
:1023FA0001EF12F003EF12F005EF12F0F8EF11F00F
:10240A003250D8B40BEF12F00DEF12F031EF12F098
:10241A00010E1A26000E1B221C221D221DA018EFD7
:10242A0012F01AEF12F031EF12F01AC022F01BC0AC
:10243A0023F01CC024F01DC025F025342532243297
:10244A002332223222C01AF023C01BF024C01CF00F
:10245A0025C01DF02B4A2C2A2CBE3CEF12F02C5022
:10246A0008E12B28D8A03CEF12F03EEF12F049EF1A
:10247A0012F0000E2C6E2B68000E1A6E000E1B6EE8
:10248A00000E1C6E000E1D6E2CBE56EF12F02C5064
:10249A0006E12B04D8B054EF12F056EF12F064EFB5
:1024AA0012F0000E2C6E000E2B6E000E1A6E000E2D
:1024BA001B6E000E1C6E000E1D6E000E2A6E2BC0C7
:1024CA0031F031A06BEF12F06DEF12F070EF12F0F5
:1024DA001C8E71EF12F01C9ED89031301D6E27EFC2
:1024EA0011F01200DFC043F0E0C044F0E1C045F053
:1024FA00E2C046F033C043F034C044F035C045F082
:10250A0036C046F0810E376EFF0E386E43C039F082
:10251A0044C03AF045C03BF046C03CF0180E9BEF71
:10252A0012F0D8903C323B323A323932E82E96EFEA
:10253A0012F039503724416E000E3820426E42BEE6
:10254A00B0EF12F0425009E1170E415CD8A0B0EF8B
:10255A0012F0B2EF12F0BCEF12F033C033F034C015
:10256A0034F035C035F036C036F07FEF13F042BE96
:10257A00C1EF12F0C3EF12F033EF13F041C037F09E
:10258A00FF0E386EFF0E396E7F0E3A6E000E3B6EEE
:10259A003766D2EF12F0DAEF12F03B343B323A32BE
:1025AA0039323832372ECDEF12F038C03DF039C00B
:1025BA003EF03AC03FF03BC040F03D504314376E06
:1025CA003E504414386E3F504514396E40504614FC
:1025DA003A6E3750381039103A10D8A4F7EF12F083
:1025EA00F9EF12F0FBEF12F0B2EF12F043C037F03E
:1025FA0044C038F045C039F046C03AF0200E0BEF1F
:10260A0013F0D8903A32393238323732E82E06EFA0
:10261A0013F03750381039103A10D8B417EF13F0B6
:10262A0019EF13F021EF13F03D5043263E50442298
:10263A003F504522405046223D1C376E3E1C386EA4
:10264A003F1C396E401C3A6E3750431638504416B8
:10265A00395045163A50461677EF13F043C037F013
:10266A0044C038F045C039F046C03AF0200E43EF76
:10267A0013F0D8903A32393238323732E82E3EEFF8
:10268A0013F03750381039103A10D8A44FEF13F01E
:10269A0051EF13F05BEF13F0000E436E000E446E21
:1026AA00000E456E000E466E77EF13F0D890433455
:1026BA00376E4434386E4534396E46343A6E375084
:1026CA00381039103A10D8B46DEF13F06FEF13F0D9
:1026DA0077EF13F0000E436E000E446E800E456EC7
:1026EA00BF0E466E43C033F044C034F045C035F0E7
:1026FA0046C036F01200000E0001B66F000EB56F2C
:10270A00010E056E010E07EC1DF0010E036E080E98
:10271A00046ED7EC1AF0000E026E000E016E2FEC5A
:10272A001CF001C0B5F002C0B6F0B5C001F0B6C0E9
:10273A0002F0000E02BEFF0E036E046E010E52EC92
:10274A0015F001C0B7F002C0B8F003C0B9F004C078
:10275A00BAF0000E056E000E066EFA0E076E430EF4
:10276A00086EB7C001F0B8C002F0B9C003F0BAC031
:10277A0004F095EC0EF001C01AF002C01BF003C081
:10278A001CF004C01DF0000E1E6EC00E1F6E7F0EE0
:10279A00206E440E216EAAEC10F01AC0B7F01BC0CE
:1027AA00B8F01CC0B9F01DC0BAF0F60E0001A06F57
:1027BA00000EA16F0E0EA26F080EA36FB7C0A4F091
:1027CA00B8C0A5F0B9C0A6F0BAC0A7F0FFEC1DF0DA
:1027DA00020E056E060E07EC1DF0F60E036E000ED5
:1027EA00046ED7EC1AF0020E056E0C0E07EC1DF003
:1027FA00260E036E080E046ED7EC1AF0B7C01AF054
:10280A00B8C01BF0B9C01CF0BAC01DF0000E1E6E95
:10281A00000E1F6E000E206E420E216E5AEC17F04B
:10282A00D8A01AEF14F01CEF14F03BEF14F09A0E34
:10283A001A6E990E1B6E0B0E1C6E420E1D6EB7C0E1
:10284A001EF0B8C01FF0B9C020F0BAC021F05AEC8F
:10285A0017F0D8A033EF14F035EF14F03BEF14F073
:10286A00819481868198819A5CEF14F09A0E1A6E8F
:10287A00990E1B6E0B0E1C6E420E1D6EB7C01EF01B
:10288A00B8C01FF0B9C020F0BAC021F05AEC17F056
:10289A00D8B052EF14F054EF14F058EF14F08184CA
:1028AA00819A5AEF14F08194818A81968188F6C0C0
:1028BA0071F1F7C072F1F9C074F1FAC075F1820EC4
:1028CA005F6EDE0EE82EFED75F2EFCD712000001E7
:1028DA00F35193EC1FF00001F36FF45193EC1FF0E6
:1028EA000001F46FF55193EC1FF00001F56FF05100
:1028FA0093EC1FF00001F06FF15193EC1FF000010F
:10290A00F16FF25193EC1FF00001F26FF5C001F084
:10291A00026A000E046E0A0E036E75EC1AF001507C
:10292A00300F0001D66FF5C001F0026A000E046E86
:10293A000A0E036E30EC1BF00150300F0001D76F06
:10294A00F4C001F0026A000E046E0A0E036E75EC02
:10295A001AF00150300F0001D96FF4C001F0026A79
:10296A00000E046E0A0E036E30EC1BF00150300F9D
:10297A000001DA6FF3C001F0026A000E046E0A0E5B
:10298A00036E75EC1AF00150300F0001DC6FF3C0D2
:10299A0001F0026A000E046E0A0E036E30EC1BF0A0
:1029AA000150300F0001DD6FF0C001F0026A000E25
:1029BA00046E0A0E036E75EC1AF00150300F000116
:1029CA00C56FF0C001F0026A000E046E0A0E036EB3
:1029DA0030EC1BF00150300F0001C66FF1C001F05E
:1029EA00026A000E046E0A0E036E75EC1AF00150AC
:1029FA00300F0001C86FF1C001F0026A000E046EC8
:102A0A000A0E036E30EC1BF00150300F0001C96F43
:102A1A00F2C001F0026A000E046E0A0E036E75EC33
:102A2A001AF00150300F0001CD6FF2C001F0026AB6
:102A3A00000E046E0A0E036E30EC1BF00150300FCC
:102A4A000001CE6F010E056E010E07EC1DF0D00ECF
:102A5A00036E000E046ED7EC1AF0020E056E010E1C
:102A6A0007EC1DF0BF0E036E000E046ED7EC1AF0D1
:102A7A00D6C056F1D7C057F1D9C059F1DAC05AF1C8
:102A8A00C5C062F1C6C063F1C8C065F1C9C066F1CC
:102A9A00CDC068F1CEC069F11200096E0950D8B4F0
:102AAA0059EF15F05BEF15F07DEF15F004BE62EFFC
:102ABA0015F060EF15F07DEF15F001C005F002C0CA
:102ACA0006F003C007F004C008F0051E061E071E24
:102ADA00081E052A000E06220722082205C00BF04E
:102AEA0006C00CF007C00DF008C00EF085EF15F017
:102AFA0001C00BF002C00CF003C00DF004C00EF0D0
:102B0A000150021003100410D8A48EEF15F090EFB4
:102B1A0015F09AEF15F0000E016E000E026E000E0F
:102B2A00036E000E046E2BEF16F0960E0A6EA4EFDB
:102B3A0015F00A2AD8900E320D320C320B32000EE2
:102B4A000B14056E000E0C14066E000E0D14076EA3
:102B5A00FE0E0E14086E0550061007100810D8A4B1
:102B6A00B9EF15F0BBEF15F09EEF15F0C9EF15F0B0
:102B7A000A2A010E0B26000E0C220D220E22D890D4
:102B8A000E320D320C320B32000E0B14056E000E93
:102B9A000C14066E000E0D14076EFF0E0E14086E4E
:102BAA000550061007100810D8A4DEEF15F0E0EF64
:102BBA0015F0BDEF15F0E8EF15F00A06D8900B36C0
:102BCA000C360D360E360DBEEDEF15F0EFEF15F0A3
:102BDA00F7EF15F0020E0A60F5EF15F0F7EF15F0B2
:102BEA00E2EF15F00AB0FCEF15F0FEEF15F0FFEF7B
:102BFA0015F00D9ED8900A320AC005F0066A076AD7
:102C0A00086A05C008F0076A066A056A05500B12C9
:102C1A0006500C1207500D1208500E120950D8B463
:102C2A0019EF16F01BEF16F023EF16F004BE22EF91
:102C3A0016F020EF16F023EF16F00E8E0BC001F0FF
:102C4A000CC002F00DC003F00EC004F01200000E1A
:102C5A00116E000E106E000E0F6E000E0E6E38EF23
:102C6A0016F0084A092A08C0F6FF09C0F7FF08004B
:102C7A00F550200AD8B444EF16F046EF16F036EFB6
:102C8A0016F0F70E0A6EFF0E0B6E08C0F6FF09C0AB
:102C9A00F7FF0800F5500C6E0D6A0A500C260B500F
:102CAA000D220D5009E1050E0C5CD8A05FEF16F05D
:102CBA0061EF16F036EF16F06BEF16F0000E0F6E9E
:102CCA00010E0E6E084A092AA0EF16F008C0F6FF98
:102CDA0009C0F7FF0800F5500A6E0B6A0B50000A8C
:102CEA00D8B47AEF16F0A0EF16F00A502B0AD8B42F
:102CFA0067EF16F0060AD8B463EF16F0A0EF16F0E5
:102D0A0010C001F011C002F0000E046E0A0E036E2C
:102D1A0064EC1FF008C0F6FF09C0F7FF0800F55081
:102D2A00015E000E025A300E0124106E000E0220BF
:102D3A00116E67EF16F0D00E0A6EFF0E0B6E08C00A
:102D4A00F6FF09C0F7FF0800F5500C6E0D6A0A502D
:102D5A000C260B500D220D5009E10A0E0C5CD8A06E
:102D6A00B9EF16F0BBEF16F085EF16F00E500F1004
:102D7A00D8A4C2EF16F0C4EF16F0D2EF16F010C0C6
:102D8A000AF011C00BF00A1E0B1E0A4A0B2A0AC0CF
:102D9A0008F00BC009F0D6EF16F010C008F011C009
:102DAA0009F01200033404340A6E0A50D8A4E0EF82
:102DBA0016F0E2EF16F0ECEF16F0000E016E000EC0
:102DCA00026E000E036E000E046E59EF17F001C07A
:102DDA0005F002C006F003C007F004C008F0200E98
:102DEA00FCEF16F0D8900832073206320532E82E88
:102DFA00F7EF16F00550096E038EFF0E0116FF0E4F
:102E0A000216FF0E0316000E0416960E0A5E0ABE7E
:102E1A0013EF17F011EF17F029EF17F00A50800A95
:102E2A00970FD8B01BEF17F01DEF17F01FEF17F031
:102E3A00E2EF16F0D89004320332023201320A3E2F
:102E4A001FEF17F041EF17F01F0E0A642FEF17F06C
:102E5A0031EF17F039EF17F0E2EF16F0D89001369C
:102E6A000236033604360A060A50D8A43FEF17F092
:102E7A0041EF17F033EF17F00950D8B447EF17F0C6
:102E8A0049EF17F051EF17F0041E031E021E016CE2
:102E9A00000E02220322042201C001F002C002F045
:102EAA0003C003F004C004F01200000E1A14226ECC
:102EBA00000E1B14236E800E1C14246E7F0E1D142C
:102ECA00256E2250231024102510D8A46FEF17F076
:102EDA0071EF17F079EF17F0000E1A6E000E1B6EE5
:102EEA00000E1C6E000E1D6E000E1E14226E000EC9
:102EFA001F14236E800E2014246E7F0E2114256E5B
:102F0A002250231024102510D8A48EEF17F090EF2A
:102F1A0017F098EF17F0000E1E6E000E1F6E000ECF
:102F2A00206E000E216E1DAE9DEF17F09FEF17F079
:102F3A00A8EF17F01A6C1B1ED8B01B2A1C1ED8B09B
:102F4A001C2A800E1D5621AEADEF17F0AFEF17F019
:102F5A00B8EF17F01E6C1F1ED8B01F2A201ED8B05B
:102F6A00202A800E2156000E1A1A000E1B1A000E75
:102F7A001C1A800E1D1A000E1E1A000E1F1A000EB1
:102F8A00201A800E211A1E501A5C1F501B582050FE
:102F9A001C5821501D58D8B0D5EF17F0D7EF17F0AD
:102FAA00DAEF17F0D890DBEF17F0D8801200E3C001
:102FBA000BF0E4C00CF0E5C00DF0E6C00EF001C065
:102FCA000BF002C00CF003C00DF004C00EF00BC0F1
:102FDA0005F00CC006F00DC007F00EC008F0180E80
:102FEA00FCEF17F0D8900832073206320532E82E85
:102FFA00F7EF17F00550096E0A6A09500A10D8A4AB
:10300A0009EF18F00BEF18F02BEF18F0D8900B34EB
:10301A00056E0C34066E0D34076E0E34086E0550BC
:10302A00061007100810D8A41DEF18F01FEF18F0AB
:10303A0025EF18F0000E026E020E016E5AEF18F01C
:10304A00000E026E030E016E5AEF18F009280A10DC
:10305A00D8A432EF18F034EF18F056EF18F00BC07E
:10306A0005F00CC006F00DC007F00EC008F0090EFE
:10307A00D8900536063607360836E82E3DEF18F0A2
:10308A000550061007100810D8B44EEF18F051EF8B
:10309A0018F0010E52EF18F0000E016E026A5AEF94
:1030AA0018F0000E026E040E016E1200A00E0E6ED3
:1030BA00860E0F6E010E106E000E116EA0EC1DF042
:1030CA0043EC19F0BFEC1FF0939493969398939A5C
:1030DA00700ED312D350FC0B0209D36E949CAC9C95
:1030EA00AC8AAC98AC94B896AB8E0C0EAF6E010E4F
:1030FA000001BE6F900EBD6F8CEF18F080EC13F0DC
:10310A00FB0E0001BD25BD6FFF0EBE21BE6FBEBF07
:10311A0099EF18F0BE5106E1BD05D8B097EF18F047
:10312A0099EF18F083EF18F0E4EC1FF0060E000197
:10313A00BC6F130EBB6FAD0EE82EFED7BB2FFCD7AC
:10314A00BC2FFAD700D0000E0001BE6FC80EBD6FAB
:10315A00B8EF18F0C6EC1CF0FB0E0001BD25BD6FE0
:10316A00FF0EBE21BE6FBEBFC5EF18F0BE5106E10D
:10317A00BD05D8B0C3EF18F0C5EF18F0AFEF18F0DF
:10318A00E4EC1FF0060E0001BC6F130EBB6FAD0E10
:10319A00E82EFED7BB2FFCD7BC2FFAD700D07CEF86
:1031AA0018F000EF00F001C008F002C009F003C0F7
:1031BA000AF004C00BF00506D8A00606052806E1A9
:1031CA000628D8A4EBEF18F0EDEF18F0FAEF18F094
:1031DA00000E026E000E016E42EF19F0084A092A2B
:1031EA000A4A0B2A0506D8A0060608C0D9FF09C054
:1031FA00DAFFDF50D8B404EF19F006EF19F031EF17
:10320A0019F00AC0F6FF0BC0F7FF0800F5500009D5
:10321A00D8B412EF19F014EF19F031EF19F0055084
:10322A000610D8B41BEF19F01DEF19F031EF19F0A1
:10323A0008C0D9FF09C0DAFFDF50076E0AC0F6FFDF
:10324A000BC0F7FF0800F5500718D8B42FEF19F094
:10325A0031EF19F0F3EF18F008C0D9FF09C0DAFF0F
:10326A00DF50076E0AC0F6FF0BC0F7FF0800F550E3
:10327A00075C016E026AD8A0020612000001FA91E8
:10328A008B908B928C988C9A8C9C8C9E9490949216
:10329A009598959A959C959E680E056EE40EE82E73
:1032AA00FED7052EFCD700D0030E51EC1EF00D0EF2
:1032BA00056EFC0EE82EFED7052EFCD7030E51EC48
:1032CA001EF00D0E056EFC0EE82EFED7052EFCD75D
:1032DA00030E51EC1EF00D0E056EFC0EE82EFED705
:1032EA00052EFCD7020E51EC1EF00D0E056EFC0EDB
:1032FA00E82EFED7052EFCD7280E51EC1EF0820EC2
:10330A00056EDE0EE82EFED7052EFCD70C0E51EC0C
:10331A001EF0820E056EDE0EE82EFED7052EFCD7B5
:10332A00010E51EC1EF0820E056EDE0EE82EFED75F
:10333A00052EFCD7060E51EC1EF0820E056EDE0E2F
:10334A00E82EFED7052EFCD7010E51EC1EF0120016
:10335A0003500410D8B4B4EF19F0B6EF19F0BFEF68
:10336A0019F003500410D8A4BDEF19F0BFEF19F0FB
:10337A00C4EF19F00150E8EC1FF011EF1AF020EE3B
:10338A0009F00350D9260450DA22DE50DE10D8B4F0
:10339A00D1EF19F0D3EF19F0EEEF19F020EE09F0A2
:1033AA000350D9260450DA2210EE03F00350E12626
:1033BA000450E222DE50E65CE650800A096EDE50D6
:1033CA00800A0958D8B0ECEF19F0EEEF19F011EFB6
:1033DA001AF020EE03F00350D9260450DA22DECF89
:1033EA0005F0DDCF06F003C0D9FF04C0DAFFDECF57
:1033FA0007F0DDCF08F005500724D96E06500820E3
:10340A00DA6E01C0DFFF20EE03F00350D926045024
:10341A00DA22DE2A000EDD2212000001EDA118EFE9
:10342A001AF01AEF1AF024EF1AF013C00AF014C0B7
:10343A000BF011C00CF012C00DF0BBEC1EF016BE62
:10344A0029EF1AF02BEF1AF031EF1AF015C01AF023
:10345A0016C01BF035EF1AF0000E1B6E000E1A6E26
:10346A00000E196E000E186E47EF1AF0000E026E6B
:10347A00200E016E11C003F012C004F0ADEC19F079
:10348A00184A192A1A50185C1950800A176E1B50CC
:10349A00800A1758D8A054EF1AF056EF1AF03BEFEB
:1034AA001AF00001EDB15CEF1AF05EEF1AF068EF66
:1034BA001AF013C00AF014C00BF011C00CF012C0BD
:1034CA000DF0BBEC1EF013C001F014C002F031EC99
:1034DA001FF01A500124116E1B500220126E1200A6
:1034EA00000E066E04BE7EEF1AF07CEF1AF084EF2F
:1034FA001AF0036C041ED8B0042A010E066E02BE2E
:10350A008BEF1AF089EF1AF091EF1AF0016C021E94
:10351A00D8B0022A010E061A000E086E000E076EB7
:10352A0003500410D8B49CEF1AF09EEF1AF0C6EFBD
:10353A001AF0010E056EA6EF1AF0D890033604367B
:10354A00052A04AEABEF1AF0ADEF1AF0A2EF1AF0AB
:10355A00D890073608360350015C04500258D8A0A8
:10356A00B9EF1AF0BBEF1AF0C0EF1AF00350015E80
:10357A000450025A0780D89004320332052EADEF68
:10358A001AF00650D8B4CCEF1AF0CEEF1AF0D2EFF8
:10359A001AF0076C081ED8B0082A07C001F008C044
:1035AA0002F01200000E086E0001FA8111EF1BF002
:1035BA0008500324056E000E0420066E05C0F6FFAF
:1035CA0006C0F7FFF86A070EF76403D00800F55043
:1035DA0005D0F6CFE1FFF7CFE2FFE750076E0738D5
:1035EA000F0B7DEC1CF008500324056E000E04201E
:1035FA00066E05C0F6FF06C0F7FFF86A070EF76405
:10360A0003D00800F55005D0F6CFE1FFF7CFE2FF6F
:10361A00E7507DEC1CF0082A08500324056E000EC2
:10362A000420066E05C0F6FF06C0F7FFF86A070E0B
:10363A00F76403D00800F55005D0F6CFE1FFF7CFC5
:10364A00E2FFE7500009D8A42DEF1BF02FEF1BF083
:10365A00DDEF1AF01200000E066E02BE39EF1BF003
:10366A0037EF1BF03FEF1BF0016C021ED8B0022AA5
:10367A00010E066E04BE46EF1BF044EF1BF04AEF44
:10368A001BF0036C041ED8B0042A03500410D8B4EB
:10369A0051EF1BF053EF1BF077EF1BF0010E056E95
:1036AA005BEF1BF0D89003360436052A04AE60EFB0
:1036BA001BF062EF1BF057EF1BF00350015C045044
:1036CA000258D8A06BEF1BF06DEF1BF071EF1BF0E7
:1036DA000350015E0450025AD89004320332052E78
:1036EA0062EF1BF00650D8B47DEF1BF07FEF1BF0A2
:1036FA0083EF1BF0016C021ED8B0022A01C001F050
:10370A0002C002F01200000E0114096E000E02142B
:10371A000A6E800E03140B6E7F0E04140C6E095091
:10372A000A100B100C10D8A49DEF1BF09FEF1BF092
:10373A00A7EF1BF0000E016E000E026E000E036E64
:10374A00000E046E000E0514096E000E06140A6EB1
:10375A00800E07140B6E7F0E08140C6E09500A10A7
:10376A000B100C10D8A4BCEF1BF0BEEF1BF0C6EF79
:10377A001BF0000E056E000E066E000E076E000EA0
:10378A00086E055001180FE1065002180CE10750A7
:10379A00031809E108500418D8B4D6EF1BF0D8EF83
:1037AA001BF0DBEF1BF0D890DCEF1BF0D880120087
:1037BA00000E096E000E0A6E000E0B6E000E0C6EE5
:1037CA000550061007100810D8B4EEEF1BF0F0EF02
:1037DA001BF026EF1CF0010E0D6EFAEF1BF0D890CD
:1037EA0005360636073608360D2A08AEFFEF1BF0F7
:1037FA0001EF1CF0F4EF1BF0D89009360A360B36AD
:10380A000C360550015C0650025807500358085000
:10381A000458D8A013EF1CF015EF1CF01EEF1CF093
:10382A000550015E0650025A0750035A0850045ABE
:10383A000980D89008320732063205320D2E01EF80
:10384A001CF009C001F00AC002F00BC003F00CC062
:10385A0004F0120001C003F0D8900336D890033662
:10386A003C0E0316C250C30B0310C26EC2B240EF25
:10387A001CF044EF1CF0036A032A45EF1CF0036AAC
:10388A00010E046E032A4CEF1CF0D8900436032E66
:10389A004AEF1CF0C2B054EF1CF058EF1CF0056A56
:1038AA00052A59EF1CF0056A010E066E052A60EF1B
:1038BA001CF0D8900636052E5EEF1CF00650041058
:1038CA00C212C2B26BEF1CF06DEF1CF066EF1CF077
:1038DA00C350C4CF03F0046A03C004F0036A0310A0
:1038EA00076E0450086E07C001F008C002F012000B
:1038FA00026E0001FAA102D08B8001D08B9002C027
:10390A0001F0010E0116013A8C500118EF0B011853
:10391A008C6E02C001F0D8900132010E0116013AF4
:10392A0001468C500118DF0B01188C6E02C001F0A1
:10393A00D8900132D8900132010E0116013A01469F
:10394A0001468C500118BF0B01188C6E02C001F0A1
:10395A00D8900132D8900132D8900132010E011666
:10396A00013201328C5001187F0B01188C6E8B9238
:10397A0000D08B8200D08B92420EE82EFED700D068
:10398A001200D2EC1FF0D00E87EC1FF0000E87EC6D
:10399A001FF0DBEC1FF0D10E87EC1FF09EEC1FF03E
:1039AA000001F36FB4EC1FF09EEC1FF00001F46FFE
:1039BA00B4EC1FF09EEC1FF00001F56FB4EC1FF0A1
:1039CA009EEC1FF0B4EC1FF09EEC1FF00001F06FAC
:1039DA00B4EC1FF09EEC1FF00001F16FB4EC1FF085
:1039EA009EEC1FF00001F26FA9EC1FF0C9EC1FF06A
:1039FA006CEC14F0820E096EDE0EE82EFED7092E4C
:103A0A00FCD71200086E22EF1DF00850BF0F51ECD0
:103A1A001EF03BEF1DF00850930F51EC1EF03BEFE8
:103A2A001DF00850D30F51EC1EF03BEF1DF008506B
:103A3A007F0F51EC1EF03BEF1DF00550066E076A32
:103A4A000750000AD8B42CEF1DF01CEF1DF00650E9
:103A5A00020AD8B40AEF1DF0010AD8B410EF1DF01B
:103A6A00070AD8B416EF1DF01CEF1DF01200980ECD
:103A7A00F66E3E0EF76E000EF86E01EE50F010EE86
:103A8A0030F00900F5CFEEFFE550E150FAE1EE0E15
:103A9A00F66E3E0EF76E000EF86E00EEBFF010EEF8
:103AAA0020F00900F5CFEEFFE550E150FAE101EE12
:103ABA0000F0500EEE6AE806FDE10001FA6B00EE36
:103ACA00DFF01B0EEE6AE806FDE1000EF86E00015B
:103ADA005BEF18F09CC05DF09DC05EF0000E000127
:103AEA00E86F000EE76F8DEF1DF09AC053F09BC090
:103AFA0054F05D0E556E000E566E9EC057F09FC074
:103B0A0058F07CEC0CF053500001E7275450E8239E
:103B1A005DC0F6FF5EC0F7FF0800F5500009D8A4A3
:103B2A0099EF1DF09BEF1DF07AEF1DF0E7C09AF0B8
:103B3A00E8C09BF0120093809382C79CC78EC68A06
:103B4A00C650F00B0809C66E000EC56E000E016E57
:103B5A00120E026E7A0E036E000E046E0EC012F082
:103B6A000FC013F010C014F011C015F0020ED89057
:103B7A001236133614361536E82EBCEF1DF012C075
:103B8A0005F013C006F014C007F015C008F0DDEC0C
:103B9A001BF00104C86E120003C007F004C008F04D
:103BAA0001C009F002C00AF00750056E0850066EFF
:103BBA00074A082A05C0F6FF06C0F7FFF86A09C0D7
:103BCA00D9FF0AC0DAFF094A0A2A070EF76403D0A6
:103BDA000800F55005D0F6CFE1FFF7CFE2FFE75036
:103BEA00DF6EDF50D8A4FCEF1DF0FEEF1DF0D9EF19
:103BFA001DF01200A40E0001A86F000EA96FA0C04C
:103C0A00AAF0A1C0ABF0000EAE6F000EAD6F000EB1
:103C1A00B46F000EB36FAA0E9A6F000E9B6FA2C00C
:103C2A009CF0A3C09DF0A80E9E6F000E9F6F6FECD4
:103C3A001DF00001AD51A025D96EAE51A121DA6E59
:103C4A00000EDF6E1200010E076E200E0118021020
:103C5A00D8B432EF1EF034EF1EF04DEF1EF0F70E1F
:103C6A00036EFF0E046E01C005F002C006F0035099
:103C7A00052604500622065009E1050E055CD8A067
:103C8A0049EF1EF04BEF1EF04DEF1EF0000E076ECF
:103C9A0007C001F0026A1200046E0001FA910438AA
:103CAA000F0B7DEC1CF004507DEC1CF00404D8B41E
:103CBA0061EF1EF063EF1EF06CEF1EF0020E0418A7
:103CCA00D8A46AEF1EF06CEF1EF074EF1EF0060E19
:103CDA00036E300EE82EFED7032EFCD700D012005A
:103CEA00BF0E096EFF0E0A6E07C00BF008C00CF07B
:103CFA0009500B260A500C220C5007E11A0E0B5CD5
:103D0A00D8B08AEF1EF08CEF1EF093EF1EF0200E53
:103D1A000710076E0850086E97EF1EF007C007F0ED
:103D2A0008C008F01200000E1E1A000E1F1A000E1C
:103D3A00201A800E211A1AC001F01BC002F01CC002
:103D4A0003F01DC004F01EC005F01FC006F020C01D
:103D5A0007F021C008F01CEC0AF001C01AF002C0FA
:103D6A001BF003C01CF004C01DF01200000E106E00
:103D7A00000E0F6ECCEF1EF00EC001F0026A0CC0EE
:103D8A0003F00DC004F0ADEC19F00F4A102A0F50E1
:103D9A000A24D96E10500B20DA6EDF500E6E0E50C8
:103DAA00D8A4DAEF1EF0DCEF1EF0C1EF1EF012000D
:103DBA00BF0E036EFF0E046E01C005F002C006F0CE
:103DCA00035005260450062206500AE11A0E055C25
:103DDA00D8A0F2EF1EF0F5EF1EF0010EF6EF1EF07E
:103DEA00000E016E026A1200015002100310041044
:103DFA00D8B402EF1FF004EF1FF00CEF1FF0000E13
:103E0A00011A000E021A000E031A800E041A01C0CB
:103E1A0001F002C002F003C003F004C004F0120073
:103E2A00D00E036EFF0E046E01C005F002C006F04C
:103E3A00035005260450062206500AE10A0E055CC4
:103E4A00D8A02AEF1FF02DEF1FF0010E2EEF1FF062
:103E5A00000E016E026A120001C003F002C004F0F3
:103E6A0039EF1FF0014A022A01C0D9FF02C0DAFF66
:103E7A00DF50D8A443EF1FF045EF1FF037EF1FF0D4
:103E8A000350015C016E04500258026E1200484F42
:103E9A0052413A2078783A787820444154453A2079
:103EAA0078782F78782F78782054454D503A2078B2
:103EBA00782C787820677261646F730D0A0001505C
:103ECA000302F3CF05F0F4CF06F001500402F350D9
:103EDA00062602500302F350062605C001F006C06A
:103EEA0002F01200444154453A2030302F30302F2E
:103EFA00323030300054494D453A2030303A303073
:103F0A003A303000016E9E9601C0C9FF9EA690EF1E
:103F1A001FF092EF1FF08BEF1FF01200026E02C02B
:103F2A0001F00F0E011602380F0B0A0DF35001248F
:103F3A0012009E96C5869EA6A5EF1FF0A7EF1FF05A
:103F4A00A0EF1FF0C95012009E96C58AC5889EA68A
:103F5A00B1EF1FF0B3EF1FF0ACEF1FF012009E9607
:103F6A00C59AC5889EA6BCEF1FF0BEEF1FF0B7EF3B
:103F7A001FF0120092680E0EC16E920EC06E000EF5
:103F8A00C46E000EC36E1200C584C5B4CFEF1FF015
:103F9A00D1EF1FF0CAEF1FF01200C580C5B0D8EFED
:103FAA001FF0DAEF1FF0D3EF1FF01200C582C5B27F
:103FBA00E1EF1FF0E3EF1FF0DCEF1FF01200010E3C
:083FCA0051EC1EF01200120080
:020000040020DA
:08000000FFFFFFFFFFFFFFFF00
:020000040030CA
:0E000000000C191EFF8381FF0FC00FE00F40A0
:00000001FF
