:040000007DEF1DF083
:100800000054656D70657261747572613A00252ED1
:10081000326600494E46004E414E00696E66006EDB
:09082000616E006C6600430000EB
:10082A00000E0001756F000E746F49C086F04AC051
:10083A0087F04BC088F04CC089F089BF29EF04F0DB
:10084A0027EF04F03FEF04F0000E756F010E746F8E
:10085A0086C001F087C002F088C003F089C004F0A6
:10086A0061EC1FF001C086F002C087F003C088F077
:10087A0004C089F0000E00018D6F000E8C6FE7C076
:10088A0078F0E8C079F074517511D8A44FEF04F0EC
:10089A0051EF04F058EF04F0EBA556EF04F058EFCF
:1008AA0004F072EF04F074517511D8A45FEF04F0EC
:1008BA0061EF04F067EF04F0000E616F2B0E606FBA
:1008CA006BEF04F0000E616F2D0E606F60C000F1D7
:1008DA008C4B8D2B7807D8A0790786C001F087C08A
:1008EA0002F088C003F089C004F085EC17F0010417
:1008FA000210D8A483EF04F085EF04F0D0EF04F0DF
:10090A00BF0E4E6EFF0E4F6E4D50506E516A4E50D6
:10091A0050264F505122515007E11A0E505CD8B060
:10092A0099EF04F09BEF04F0AAEF04F0000E000127
:10093A008C25016E010E8D21026E130E036E080EB8
:10094A00046E12EC1EF0B7EF04F0000E00018C25C5
:10095A00016E010E8D21026E1B0E036E080E046ECF
:10096A0012EC1EF00001FD0E7827FF0E792347C016
:10097A0011F048C012F0000E136E010E146E78C00A
:10098A0015F079C016F03EEC19F011C047F012C00C
:10099A0048F01BEF0AF086C001F087C002F088C059
:1009AA0003F089C004F085EC17F001500210D8A4B6
:1009BA00E1EF04F0E3EF04F017EF05F0BF0E4E6E1F
:1009CA00FF0E4F6E4D50506E516A4E5050264F508A
:1009DA005122515007E11A0E505CD8B0F7EF04F0DB
:1009EA00F9EF04F008EF05F0000E00018C25016E06
:1009FA00010E8D21026E170E036E080E046E12ECA4
:100A0A001EF0B7EF04F0000E00018C25016E010EF6
:100A1A008D21026E1F0E036E080E046E12EC1EF07C
:100A2A00B7EF04F0000E00018E6F000E8F6F800E7C
:100A3A00906F3F0E916F000E8B6F000E8A6F86C00B
:100A4A0001F087C002F088C003F089C004F0000EEC
:100A5A00056E000E066E000E076E000E086EBDECE7
:100A6A001BF0D8B03BEF05F03DEF05F0C0EF05F005
:100A7A005CEF05F08EC001F08FC002F090C003F069
:100A8A0091C004F0000E056E000E066E200E076E71
:100A9A00410E086E95EC0EF001C08EF002C08FF088
:100AAA0003C090F004C091F000018A4B8B2B86C0E2
:100ABA001AF087C01BF088C01CF089C01DF0000E18
:100ACA00056E000E066E200E076E410E086E8EC071
:100ADA0001F08FC002F090C003F091C004F095ECD1
:100AEA000EF001C01EF002C01FF003C020F004C0C7
:100AFA0021F003EC17F0D8B085EF05F087EF05F089
:100B0A003FEF05F0A7EF05F08EC01AF08FC01BF07B
:100B1A0090C01CF091C01DF0000E1E6E000E1F6EDC
:100B2A00200E206E410E216EAAEC10F01AC08EF033
:100B3A001BC08FF01CC090F01DC091F000018A0705
:100B4A00D8A08B0786C01AF087C01BF088C01CF09B
:100B5A0089C01DF08EC01EF08FC01FF090C020F01B
:100B6A0091C021F003EC17F0D8A0BEEF05F0C0EF5A
:100B7A0005F089EF05F04DC007F0086ADDEC1EF0BC
:100B8A00075000017B6F7BC07AF0670E7B19D8A4EF
:100B9A00D1EF05F0D3EF05F0F9EF05F0E951EA11CD
:100BAA00D8A4DAEF05F0DCEF05F0E0EF05F0000E6F
:100BBA00EA6F010EE96FEABFEDEF05F0EA5106E1CF
:100BCA00E905D8B0EBEF05F0EDEF05F0F3EF05F02E
:100BDA00000E776F060E766F02EF06F0E9C076F028
:100BEA00EAC077F002EF06F0EABFFEEF05F000EF89
:100BFA0006F0EDEF05F0F3EF05F0670E7B19D8A4C8
:100C0A0009EF06F00BEF06F03AEF06F08BAF19EF9B
:100C1A0006F0FC0E8A5DFF0E8B59D8A017EF06F07E
:100C2A0019EF06F038EF06F0FF0E4E6EFF0E4F6E0C
:100C3A0076C050F077C051F04E5050264F50512296
:100C4A008A51505C5150800A526E8B51800A525818
:100C5A00D8A032EF06F034EF06F038EF06F0660E51
:100C6A007A6F3AEF06F0650E7A6F76C06CF077C04D
:100C7A006DF0670E7B19D8A445EF06F047EF06F032
:100C8A0057EF06F0660E7A19D8A44EEF06F050EF29
:100C9A0006F059EF06F08BBF57EF06F055EF06F056
:100CAA0059EF06F06C4B6D2B660E7A19D8A460EFDB
:100CBA0006F062EF06F082EF06F08BBF69EF06F0EE
:100CCA0067EF06F075EF06F0000E8E6F000E8F6F5D
:100CDA00800E906F3F0E916F000E8B6F000E8A6F21
:100CEA00670E7B19D8B47CEF06F07EEF06F082EF30
:100CFA0006F08A516C278B516D23000E856F000E0A
:100D0A00846F86C07CF087C07DF088C07EF089C081
:100D1A007FF08EC06EF08FC06FF090C070F091C0FF
:100D2A0071F013EF07F07CC01AF07DC01BF07EC093
:100D3A001CF07FC01DF08EC01EF08FC01FF090C047
:100D4A0020F091C021F0AAEC10F01AC033F01BC0B9
:100D5A0034F01CC035F01DC036F077EC12F033C009
:100D6A0080F034C081F035C082F036C083F080C094
:100D7A0001F081C002F082C003F083C004F080EC6D
:100D8A0016F001C072F002C073F07CC01AF07DC088
:100D9A001BF07EC01CF07FC01DF08EC005F08FC016
:100DAA0006F090C007F091C008F080C001F081C041
:100DBA0002F082C003F083C004F095EC0EF001C08B
:100DCA001EF002C01FF003C020F004C021F000ECA6
:100DDA001FF01AC07CF01BC07DF01CC07EF01DC045
:100DEA007FF08EC01AF08FC01BF090C01CF091C02B
:100DFA001DF0000E1E6E000E1F6E200E206E410E9C
:100E0A00216EAAEC10F01AC08EF01BC08FF01CC025
:100E1A0090F01DC091F00001844B852B6C51845DCC
:100E2A008551800A4E6E6D51800A4E58D8A020EF27
:100E3A0007F022EF07F098EF06F08EC001F08FC09E
:100E4A0002F090C003F091C004F0000E056E000E8F
:100E5A00066EA00E076E400E086E95EC0EF001C0ED
:100E6A0080F002C081F003C082F004C083F07CC02D
:100E7A001AF07DC01BF07EC01CF07FC01DF080C040
:100E8A001EF081C01FF082C020F083C021F003EC65
:100E9A0017F0D8B053EF07F055EF07F060EF07F0FF
:100EAA00000E0001806F000E816F000E826F000E2F
:100EBA00836F89EF07F07CC001F07DC002F07EC02D
:100ECA0003F07FC004F080C005F081C006F082C044
:100EDA0007F083C008F0BDEC1BF0D8A077EF07F04D
:100EEA0079EF07F089EF07F0000172B17FEF07F0A1
:100EFA0081EF07F089EF07F0000E806F000E816F17
:100F0A00000E826F000E836F86C001F087C002F068
:100F1A0088C003F089C004F080C005F081C006F0E3
:100F2A0082C007F083C008F01CEC0AF001C07CF014
:100F3A0002C07DF003C07EF004C07FF07CC01AF0CE
:100F4A007DC01BF07EC01CF07FC01DF0000E056E38
:100F5A00000E066E200E076E410E086E6EC001F07E
:100F6A006FC002F070C003F071C004F095EC0EF08F
:100F7A0001C01EF002C01FF003C020F004C021F01F
:100F8A0003EC17F0D8A0CCEF07F0CEEF07F0F7EF9D
:100F9A0007F000018A4B8B2B6EC001F06FC002F084
:100FAA0070C003F071C004F0000E056E000E066EEC
:100FBA00200E076E410E086E95EC0EF001C06EF021
:100FCA0002C06FF003C070F004C071F0660E000139
:100FDA007A19D8A4F3EF07F0F5EF07F0F7EF07F067
:100FEA006C4B6D2B6EC08EF06FC08FF070C090F09E
:100FFA0071C091F0650E00017A19D8B407EF08F0B4
:10100A0009EF08F00FEF08F08AC06AF08BC06BF0A6
:10101A0013EF08F0000E6B6F000E6A6F000E696F17
:10102A00000E686F000E676F000E666F000E856F08
:10103A00000E846F0EEF09F07CC01AF07DC01BF021
:10104A007EC01CF07FC01DF08EC01EF08FC01FF046
:10105A0090C020F091C021F0AAEC10F01AC033F031
:10106A001BC034F01CC035F01DC036F077EC12F00E
:10107A0033C080F034C081F035C082F036C083F0CE
:10108A0080C001F081C002F082C003F083C004F086
:10109A0080EC16F001C072F002C073F00001EBB9E7
:1010AA0059EF08F05BEF08F078EF08F0725173110E
:1010BA00D8A462EF08F064EF08F078EF08F0670E42
:1010CA007B19D8A46BEF08F06DEF08F078EF08F001
:1010DA006BBF74EF08F072EF08F078EF08F0664B18
:1010EA00672BC2EF08F068516911D8A47FEF08F0A6
:1010FA0081EF08F0ABEF08F06BBF88EF08F086EFDE
:10110A0008F0ABEF08F0000E8C25D96E010E8D2188
:10111A00DA6E2E0EDF6E8C4B8D2B7807D8A07907EE
:10112A00000E696F010E686FABEF08F0000E8C2598
:10113A00D96E010E8D21DA6E300EDF6E8C4B8D2B3F
:10114A007807D8A079076607D8A06707665167119C
:10115A00D8A4B2EF08F0B4EF08F09BEF08F0000E45
:10116A008C25D96E010E8D21DA6E7251300FDF6E29
:10117A008C4B8D2B7807D8A079077CC01AF07DC0DC
:10118A001BF07EC01CF07FC01DF08EC005F08FC022
:10119A0006F090C007F091C008F080C001F081C04D
:1011AA0002F082C003F083C004F095EC0EF001C097
:1011BA001EF002C01FF003C020F004C021F000ECB2
:1011CA001FF01AC07CF01BC07DF01CC07EF01DC051
:1011DA007FF08EC01AF08FC01BF090C01CF091C037
:1011EA001DF0000E1E6E000E1F6E200E206E410EA8
:1011FA00216EAAEC10F01AC08EF01BC08FF01CC032
:10120A0090F01DC091F000016A07D8A06B07844BCB
:10121A00852B6C51845D8551800A4E6E6D51800A12
:10122A004E58D8B01BEF09F01DEF09F02BEF09F06B
:10123A008DBF29EF09F08D5109E14B0E8C5DD8A0C5
:10124A0029EF09F02BEF09F021EF08F06851691135
:10125A00D8A432EF09F034EF09F045EF09F0EBA911
:10126A0039EF09F03BEF09F045EF09F0000E8C2544
:10127A00D96E010E8D21DA6E2E0EDF6E8C4B8D2B00
:10128A00000E8C25D96E010E8D21DA6E000EDF6EEE
:10129A00650E7A19D8A454EF09F056EF09F0BCEF9D
:1012AA0004F0000E856F4F0E846F000E8425D96EF0
:1012BA00010E8521DA6E000EDF6E000E756F000ECC
:1012CA00746F8BBF6DEF09F06BEF09F075EF09F0E2
:1012DA00000E756F010E746F8A6D8B1FD8B08B2B41
:1012EA00000E776F020E766FA6EF09F08407D8A07A
:1012FA008507000E8425D96E010E8521DA6E8AC013
:10130A0001F08BC002F0000E046E0A0E036E0EECA2
:10131A001BF00150300FDF6E8AC001F08BC002F063
:10132A00000E046E0A0E036EA1EC19F001C08AF0D9
:10133A0002C08BF000017607D8A077077807D8A0FB
:10134A0079078A518B11D8A4ADEF09F0AFEF09F0F4
:10135A007BEF09F077BFBCEF09F0775106E176051C
:10136A00D8B0BAEF09F0BCEF09F07BEF09F08407B7
:10137A00D8A0850774517511D8A4C6EF09F0C8EF33
:10138A0009F0CEEF09F0000E636F2B0E626FD2EFF9
:10139A0009F0000E636F2D0E626F000E8425D96E60
:1013AA00010E8521DA6E62C0DFFF7807D8A07907BF
:1013BA008407D8A08507BF0E4E6EFF0E4F6E4D50A4
:1013CA00506E516A4E5050264F505122515009E1E9
:1013DA001A0E505CD8A0F4EF09F0F6EF09F0FCEF12
:1013EA0009F0000E656F650E646F00EF0AF0000EDB
:1013FA00656F450E646F000E8425D96E010E852136
:10140A00DA6E64C0DFFF7807D8A07907000E8C2552
:10141A00016E010E8D21026E000E8425036E010EEF
:10142A008521046E12EC1EF0BCEF04F01200045089
:10143A00800B0D6E045004240F6E03AE27EF0AF0E2
:10144A0029EF0AF02AEF0AF00F800F50D8B430EFD4
:10145A000AF032EF0AF047EF0AF00F28D8A438EF63
:10146A000AF03AEF0AF042EF0AF0000E016E000E9F
:10147A00026E000E036E000E046E038E000E046EE2
:10148A004FEF0AF0000E016E000E026E000E036EA0
:10149A00000E046E0850800B0E6E0D500E18D8B454
:1014AA0059EF0AF05BEF0AF05CEF0AF00D8C085076
:1014BA0008240E6E07AE64EF0AF066EF0AF067EFD3
:1014CA000AF00E800E50D8B46DEF0AF06FEF0AF0F2
:1014DA0084EF0AF00E28D8A475EF0AF077EF0AF025
:1014EA007FEF0AF0000E056E000E066E000E076E04
:1014FA00000E086E078E000E086E8CEF0AF0000EC2
:10150A00056E000E066E000E076E000E086E0F5076
:10151A000E5CD8B093EF0AF095EF0AF0BCEF0AF030
:10152A000DAC9AEF0AF09CEF0AF09EEF0AF0800EDB
:10153A000D1A0FC010F00EC00FF010C00EF001C04F
:10154A0010F005C001F010C005F002C010F006C08E
:10155A0002F010C006F003C010F007C003F010C07C
:10156A0007F004C010F008C004F010C008F0000E24
:10157A00106E0F500EC009F00A6A095E000E0A5A70
:10158A000ABED1EF0AF00A5009E11A0E095CD8A086
:10159A00D1EF0AF0D3EF0AF00AEF0BF00150021074
:1015AA0003100410D8A4DCEF0AF0DFEF0AF0010EF2
:1015BA00E0EF0AF0000E106E000E016E000E026ED1
:1015CA00000E036E000E046E0EC00FF013EF0BF048
:1015DA0010A0F2EF0AF0F4EF0AF0FAEF0AF0D8904E
:1015EA0010300109106EFCEF0AF0D890103201A0F9
:1015FA0001EF0BF003EF0BF004EF0BF0108E043445
:10160A0004320332023201320F2A0E500F5CD8A084
:10161A0011EF0BF013EF0BF0EDEF0AF00DBC18EF22
:10162A000BF01AEF0BF05AEF0BF00F50D8A420EF83
:10163A000BF022EF0BF02CEF0BF0000E016E000EF8
:10164A00026E000E036E000E046E7BEF0CF0055066
:10165A00012606500222075003220850042204A041
:10166A0039EF0BF03BEF0BF0E7EF0BF010A040EF78
:10167A000BF042EF0BF048EF0BF0D8901030010955
:10168A00106E4AEF0BF0D890103201A04FEF0BF01A
:10169A0051EF0BF052EF0BF0108E04340432033288
:1016AA00023201320F2AE7EF0BF00550015C0650B7
:1016BA000258075003580450800A096E0850800ADD
:1016CA000958D8B06BEF0BF06DEF0BF098EF0BF0F9
:1016DA000150055C096E025006580A6E03500758FD
:1016EA000B6E045008580C6EFF0E0924016EFF0E93
:1016FA000A20026EFF0E0B20036EFF0E0C20046EF2
:10170A00800E0D1A106C1050D8A48EEF0BF090EFCB
:10171A000BF0A0EF0BF0010E0126000E02220322AD
:10172A000422A0EF0BF00550015E0650025A075042
:10173A00035A0850045A0150021003100410D8A486
:10174A00A9EF0BF0ABEF0BF0E0EF0BF01050D8A4C1
:10175A00B1EF0BF0B3EF0BF0E0EF0BF0000E016E00
:10176A00000E026E000E036E000E046E7BEF0CF08C
:10177A00D890013602360336043610AEC7EF0BF0A6
:10178A00C9EF0BF0CAEF0BF0018010A0CFEF0BF0FE
:10179A00D1EF0BF0D5EF0BF0D8801036D7EF0BF066
:1017AA00D89010360F50D8B4DDEF0BF0DFEF0BF006
:1017BA00E0EF0BF00F0603AEE5EF0BF0E7EF0BF0EF
:1017CA00BDEF0BF0000E0E6E10AEEEEF0BF0F0EF69
:1017DA000BF008EF0CF010C009F07F0E0916D8B410
:1017EA00F9EF0BF0FBEF0BF0FFEF0BF0010E0E6EB3
:1017FA0008EF0CF001A004EF0CF006EF0CF008EF74
:10180A000CF0FBEF0BF00E50D8B40EEF0CF010EF0B
:10181A000CF03BEF0CF0010E0126000E022203220F
:10182A00042204A01BEF0CF01DEF0CF03BEF0CF0B0
:10183A0001C009F002C00AF003C00BF004C00CF0AA
:10184A000C340C320B320A32093209C001F00AC0D8
:10185A0002F00BC003F00CC004F00F28D8B438EF24
:10186A000CF03AEF0CF03BEF0CF00F2A0F28D8B42B
:10187A0041EF0CF043EF0CF04BEF0CF00F50D8A4F3
:10188A0049EF0CF04BEF0CF05DEF0CF0000E016E1F
:10189A00000E026E000E036E000E046E0F50D8A4E6
:1018AA0059EF0CF05BEF0CF05DEF0CF0000E0D6ED3
:1018BA000FA062EF0CF064EF0CF067EF0CF0038EF0
:1018CA0068EF0CF0039ED8900F30046E0DAE70EFE7
:1018DA000CF072EF0CF073EF0CF0048E01C001F003
:1018EA0002C002F003C003F004C004F0120055C0A5
:1018FA00D9FF56C0DAFFDECFF6FFDDCFF7FF0800CB
:10190A00F550250AD8A48CEF0CF08EEF0CF079EF85
:10191A000EF055C0D9FF56C0DAFFDE2A000EDD22CE
:10192A00000E0001E86F000EE76FE7C0EBF0E8C0B9
:10193A00ECF0E969EA6955C0D9FF56C0DAFFDECF93
:10194A00F6FFDDCFF7FF0800F5502E0AD8A4B0EF56
:10195A000CF0B2EF0CF022EF0DF0000EEA6F000E61
:10196A00E96F55C0D9FF56C0DAFFDE2A000EDD2224
:10197A0055C0D9FF56C0DAFFDECFF6FFDDCFF7FF3D
:10198A000800F5502A0AD8A4CDEF0CF0CFEF0CF0DE
:10199A00ECEF0CF055C0D9FF56C0DAFFDE2A000E74
:1019AA00DD2257C0D9FF58C0DAFFDFCF59F0020E47
:1019BA00DE26DFCF5AF0000EDD2259C0D9FF5AC009
:1019CA00DAFFDECFE9F0DDCFEAF022EF0DF055C005
:1019DA00D9FF56C0DAFFDECF08F0DDCF09F044ECBC
:1019EA0015F008C0E9F009C0EAF003EF0DF055C0A0
:1019FA00D9FF56C0DAFFDE2A000EDD22D00E596E5C
:101A0A00FF0E5A6E55C0D9FF56C0DAFFDECFF6FF79
:101A1A00DDCFF7FF0800F5505B6E5C6A59505B2614
:101A2A005A505C225C5009E10A0E5B5CD8A020EF98
:101A3A000DF022EF0DF0FCEF0CF055C0D9FF56C0A7
:101A4A00DAFFDECFF6FFDDCFF7FF0800F550076EAD
:101A5A00086ADDEC1EF007500001966F9651D8B463
:101A6A0039EF0DF03BEF0DF075EF0DF055C0D9FFD2
:101A7A0056C0DAFFDECF59F0DDCF5AF0010E5926F3
:101A8A00000E5A2259C0F6FF5AC0F7FF0800F55057
:101A9A00076E086ADDEC1EF007500001976F975138
:101AAA00D8B45AEF0DF05CEF0DF075EF0DF055C09C
:101ABA00D9FF56C0DAFFDECF59F0DDCF5AF0020E59
:101ACA005926000E5A2259C0F6FF5AC0F7FF0800DD
:101ADA00F550076E086ADDEC1EF007500001986F9A
:101AEA00660E9619D8A47CEF0DF07EEF0DF0BEEFCE
:101AFA000DF055C0D9FF56C0DAFFDECFF6FFDDCFB5
:101B0A00F7FF0800F5CF99F055C0D9FF56C0DAFFA4
:101B1A00DE2A000EDD2257C0D9FF58C0DAFFDFCF18
:101B2A0059F0040EDE26DFCF5AF0000EDD2259C02E
:101B3A00D9FF5AC0DAFFDECF92F0DECF93F0DECFC4
:101B4A0094F0DECF95F053C047F054C048F092C0ED
:101B5A0049F093C04AF094C04BF095C04CF099C03C
:101B6A004DF015EC04F047C053F048C054F094EF20
:101B7A000EF0960E016E000E026E230E036E080E14
:101B8A00046E000E066E020E056E04EC18F001508B
:101B9A000210D8A4D3EF0DF0D5EF0DF043EF0EF0FD
:101BAA0055C0D9FF56C0DAFFDECF59F0DDCF5AF063
:101BBA00010E5926000E5A2259C0F6FF5AC0F7FFE5
:101BCA000800F5CF99F0BF0E596EFF0E5A6E55C038
:101BDA00D9FF56C0DAFFDECFF6FFDDCFF7FF0800E8
:101BEA00F5505B6E5C6A59505B265A505C225C5019
:101BFA0007E11A0E5B5CD8B005EF0EF007EF0EF0A6
:101C0A0021EF0EF057C0D9FF58C0DAFFDFCF59F0E5
:101C1A00040EDE26DFCF5AF0000EDD2259C0D9FFAE
:101C2A005AC0DAFFDECF92F0DECF93F0DECF94F027
:101C3A00DECF95F039EF0EF057C0D9FF58C0DAFF62
:101C4A00DFCF59F0040EDE26DFCF5AF0000EDD2278
:101C5A0059C0D9FF5AC0DAFFDECF92F0DECF93F037
:101C6A00DECF94F0DECF95F0020E55C0D9FF56C0F4
:101C7A00DAFFDE26000EDD22A8EF0DF055C0D9FFEF
:101C8A0056C0DAFFDECFF6FFDDCFF7FF0800F550CA
:101C9A00250AD8A453EF0EF055EF0EF06CEF0EF0B4
:101CAA0055C0D9FF56C0DAFFDE2A000EDD22000E2B
:101CBA00026E250E016E53C003F054C004F0D9EC35
:101CCA0018F0000E546E010E536E94EF0EF055C0CC
:101CDA00D9FF56C0DAFFDE2A000EDD22000E546E4E
:101CEA00000E536E94EF0EF055C0D9FF56C0DAFFBE
:101CFA00DECFF6FFDDCFF7FF0800F550016E026A6E
:101D0A0053C003F054C004F0D9EC18F055C0D9FF01
:101D1A0056C0DAFFDE2A000EDD2266EF0EF0120050
:101D2A000450800B0D6E04500424136E03AEA0EF12
:101D3A000EF0A2EF0EF0A3EF0EF013801350D8B4FA
:101D4A00A9EF0EF0ABEF0EF0BEEF0EF01328D8A4F9
:101D5A00B1EF0EF0B3EF0EF0BBEF0EF0000E016E16
:101D6A00000E026E000E036E000E046E038EC6EFA6
:101D7A000EF0000E016E000E026E000E036E000ED3
:101D8A00046E0850800B0D1A08500824126E07AE14
:101D9A00D1EF0EF0D3EF0EF0D4EF0EF01280125006
:101DAA00D8B4DAEF0EF0DCEF0EF0EFEF0EF01228F7
:101DBA00D8A4E2EF0EF0E4EF0EF0ECEF0EF0000E16
:101DCA00056E000E066E000E076E000E086E078E78
:101DDA00F7EF0EF0000E056E000E066E000E076E8F
:101DEA00000E086E1250D8B4FDEF0EF0FFEF0EF0A1
:101DFA0007EF0FF01350D8A405EF0FF007EF0FF01D
:101E0A0011EF0FF0000E016E000E026E000E036E4F
:101E1A00000E046EA9EF10F007500102F3CF18F07C
:101E2A00F4CF19F018500E6E0F6A106A116A195021
:101E3A00146E156A166A176A06500202F3CF18F072
:101E4A00F4CF19F018500E26000E0F22102211227C
:101E5A0019501426000E15221622172205500302C5
:101E6A00F3CF18F0F4CF19F018500E26000E0F22F7
:101E7A001022112219501426000E1522162217229A
:101E8A0010C011F00FC010F00EC00FF00E6A05500E
:101E9A000202F3CF18F0F4CF19F018500E26195099
:101EAA000F22000E1022000E112206500102F3CF5B
:101EBA0018F0F4CF19F018500E2619500F22000E00
:101ECA001022000E112210C011F00FC010F00EC027
:101EDA000FF00E6A05500102F3CF18F0F4CF19F093
:101EEA0018500E2619500F22000E1022000E112231
:101EFA0007500202F3CF18F0F4CF19F01850142645
:101F0A0019501522000E1622000E1722065003023F
:101F1A00F3CF18F0F4CF19F01850142619501522DF
:101F2A00000E1622000E172207500302F3CF18F0F4
:101F3A00F4CF19F01850096E19500A6E0B6A0C6A20
:101F4A000BC00CF00AC00BF009C00AF0096A09506C
:101F5A0014260A5015220B5016220C5017220EC0B6
:101F6A0009F00FC00AF010C00BF011C00CF0190EE6
:101F7A00C4EF0FF0D8900C320B320A320932E82E35
:101F8A00BFEF0FF0095014260A5015220B501622E3
:101F9A000C50172210C011F00FC010F00EC00FF035
:101FAA000E6A125013C009F00A6A0926000E0A22A4
:101FBA00820E0924186EFF0E0A20196EFAEF0FF02E
:101FCA00D890143615361636173611AEEFEF0FF0D5
:101FDA00F1EF0FF0F2EF0FF01480D8900E360F36B3
:101FEA00103611361806D8A0190616AEFFEF0FF0F4
:101FFA0001EF10F0E5EF0FF0000E126E11AE08EFD0
:10200A0010F00AEF10F02EEF10F0FF0E0E14096E0A
:10201A00FF0E0F140A6EFF0E10140B6E7F0E1114B2
:10202A000C6E09500A100B100C10D8B41FEF10F0E8
:10203A0021EF10F025EF10F0010E126E2EEF10F0C6
:10204A0014A02AEF10F02CEF10F02EEF10F021EF71
:10205A0010F01250D8B434EF10F036EF10F05AEFF7
:10206A0010F0010E1426000E15221622172217A0B0
:10207A0041EF10F043EF10F05AEF10F014C009F0DE
:10208A0015C00AF016C00BF017C00CF00C340C3255
:10209A000B320A32093209C014F00AC015F00BC01B
:1020AA0016F00CC017F0184A192A19BE65EF10F07D
:1020BA00195008E11828D8A065EF10F067EF10F062
:1020CA0071EF10F0000E146E000E156E800E166E73
:1020DA007F0E176E9FEF10F019BE7EEF10F01950A9
:1020EA0006E11804D8B07CEF10F07EEF10F08AEF0A
:1020FA0010F0000E146E000E156E000E166E000E15
:10210A00176E000E0D6E9FEF10F018C013F0FF0E41
:10211A001416FF0E15167F0E1616000E171613A0AC
:10212A0099EF10F09BEF10F09CEF10F0168ED890FC
:10213A001330176E0D50171214C001F015C002F0BB
:10214A0016C003F017C004F012001D50800B2A6E4F
:10215A001D501D24316E1CAEB5EF10F0B7EF10F014
:10216A00B8EF10F031803150D8B4BEEF10F0C0EFA4
:10217A0010F0D5EF10F03128D8A4C6EF10F0C8EF50
:10218A0010F0D0EF10F0000E1A6E000E1B6E000E4B
:10219A001C6E000E1D6E1C8E000E1D6EDDEF10F003
:1021AA00000E1A6E000E1B6E000E1C6E000E1D6EC7
:1021BA002150800B2A1A21502124326E20AEE8EFDA
:1021CA0010F0EAEF10F0EBEF10F032803250D8B492
:1021DA00F1EF10F0F3EF10F008EF11F03228D8A465
:1021EA00F9EF10F0FBEF10F003EF11F0000E1E6E86
:1021FA00000E1F6E000E206E000E216E208E000E45
:10220A00216E10EF11F0000E1E6E000E1F6E000EF2
:10221A00206E000E216E1E501F1020102110D8A40F
:10222A0019EF11F01BEF11F033EF11F0000E1A6ED7
:10223A00000E1B6E000E1C6E000E1D6E800E1C1210
:10224A007F0E1D122A501D121AC01AF01BC01BF055
:10225A001CC01CF01DC01DF076EF12F03150D8A43E
:10226A0039EF11F03BEF11F045EF11F0000E1A6E45
:10227A00000E1B6E000E1C6E000E1D6E76EF12F025
:10228A00325031C022F0236A225E000E235A7F0E9A
:10229A0022242B6E000E23202C6E1AC026F01BC09F
:1022AA0027F01CC028F01DC029F0000E1A6E000E7F
:1022BA001B6E000E1C6E000E1D6E000E2D6E000EA3
:1022CA002E6E000E2F6E000E306E000E326EA6EFCE
:1022DA0011F03250D8B474EF11F076EF11F08DEF9F
:1022EA0011F0D8902636273628362936D8901A364D
:1022FA001B361C361D3630AE85EF11F087EF11F014
:10230A0088EF11F01A80D8902D362E362F363036B7
:10231A001E50265C1F5027582050285821502958F3
:10232A00D8A09AEF11F09CEF11F0A5EF11F0308CC4
:10233A001E50265E1F50275A2050285A2150295ACB
:10234A00322A190E3264ACEF11F0AEEF11F06EEFD3
:10235A0011F02650271028102910D8B4B7EF11F021
:10236A00B9EF11F0D1EF11F02D80D1EF11F0D89023
:10237A001A361B361C361D3630AEC6EF11F0C8EFC2
:10238A0011F0C9EF11F01A80D8902D362E362F365B
:10239A0030362B06D8A02C061CAED6EF11F0D8EF9B
:1023AA0011F0BCEF11F0000E326E30AEDFEF11F01B
:1023BA00E1EF11F005EF12F0FF0E2D14226EFF0E61
:1023CA002E14236EFF0E2F14246E7F0E3014256EEA
:1023DA002250231024102510D8B4F6EF11F0F8EF8C
:1023EA0011F0FCEF11F0010E326E05EF12F01AA097
:1023FA0001EF12F003EF12F005EF12F0F8EF11F00F
:10240A003250D8B40BEF12F00DEF12F031EF12F098
:10241A00010E1A26000E1B221C221D221DA018EFD7
:10242A0012F01AEF12F031EF12F01AC022F01BC0AC
:10243A0023F01CC024F01DC025F025342532243297
:10244A002332223222C01AF023C01BF024C01CF00F
:10245A0025C01DF02B4A2C2A2CBE3CEF12F02C5022
:10246A0008E12B28D8A03CEF12F03EEF12F049EF1A
:10247A0012F0000E2C6E2B68000E1A6E000E1B6EE8
:10248A00000E1C6E000E1D6E2CBE56EF12F02C5064
:10249A0006E12B04D8B054EF12F056EF12F064EFB5
:1024AA0012F0000E2C6E000E2B6E000E1A6E000E2D
:1024BA001B6E000E1C6E000E1D6E000E2A6E2BC0C7
:1024CA0031F031A06BEF12F06DEF12F070EF12F0F5
:1024DA001C8E71EF12F01C9ED89031301D6E27EFC2
:1024EA0011F01200DDC043F0DEC044F0DFC045F059
:1024FA00E0C046F033C043F034C044F035C045F084
:10250A0036C046F0810E376EFF0E386E43C039F082
:10251A0044C03AF045C03BF046C03CF0180E9BEF71
:10252A0012F0D8903C323B323A323932E82E96EFEA
:10253A0012F039503724416E000E3820426E42BEE6
:10254A00B0EF12F0425009E1170E415CD8A0B0EF8B
:10255A0012F0B2EF12F0BCEF12F033C033F034C015
:10256A0034F035C035F036C036F07FEF13F042BE96
:10257A00C1EF12F0C3EF12F033EF13F041C037F09E
:10258A00FF0E386EFF0E396E7F0E3A6E000E3B6EEE
:10259A003766D2EF12F0DAEF12F03B343B323A32BE
:1025AA0039323832372ECDEF12F038C03DF039C00B
:1025BA003EF03AC03FF03BC040F03D504314376E06
:1025CA003E504414386E3F504514396E40504614FC
:1025DA003A6E3750381039103A10D8A4F7EF12F083
:1025EA00F9EF12F0FBEF12F0B2EF12F043C037F03E
:1025FA0044C038F045C039F046C03AF0200E0BEF1F
:10260A0013F0D8903A32393238323732E82E06EFA0
:10261A0013F03750381039103A10D8B417EF13F0B6
:10262A0019EF13F021EF13F03D5043263E50442298
:10263A003F504522405046223D1C376E3E1C386EA4
:10264A003F1C396E401C3A6E3750431638504416B8
:10265A00395045163A50461677EF13F043C037F013
:10266A0044C038F045C039F046C03AF0200E43EF76
:10267A0013F0D8903A32393238323732E82E3EEFF8
:10268A0013F03750381039103A10D8A44FEF13F01E
:10269A0051EF13F05BEF13F0000E436E000E446E21
:1026AA00000E456E000E466E77EF13F0D890433455
:1026BA00376E4434386E4534396E46343A6E375084
:1026CA00381039103A10D8B46DEF13F06FEF13F0D9
:1026DA0077EF13F0000E436E000E446E800E456EC7
:1026EA00BF0E466E43C033F044C034F045C035F0E7
:1026FA0046C036F012000001F151FDEC1FF0000156
:10270A00F16FF251FDEC1FF00001F26FF351FDEC95
:10271A001FF00001F36FEE51FDEC1FF00001EE6FA8
:10272A00EF51FDEC1FF00001EF6FF051FDEC1FF0CF
:10273A000001F06FF3C001F0026A000E046E0A0E87
:10274A00036EA1EC19F00150300F0001D46FF3C0F1
:10275A0001F0026A000E046E0A0E036E0EEC1BF004
:10276A000150300F0001D56FF2C001F0026A000E6D
:10277A00046E0A0E036EA1EC19F00150300F00012D
:10278A00D76FF2C001F0026A000E046E0A0E036EE1
:10279A000EEC1BF00150300F0001D86FF1C001F0B0
:1027AA00026A000E046E0A0E036EA1EC19F00150C3
:1027BA00300F0001DA6FF1C001F0026A000E046EF8
:1027CA000A0E036E0EEC1BF00150300F0001DB6F96
:1027DA00EEC001F0026A000E046E0A0E036EA1EC4E
:1027EA0019F00150300F0001C36FEEC001F0026A08
:1027FA00000E046E0A0E036E0EEC1BF00150300F31
:10280A000001C46FEFC001F0026A000E046E0A0EE6
:10281A00036EA1EC19F00150300F0001C66FEFC032
:10282A0001F0026A000E046E0A0E036E0EEC1BF033
:10283A000150300F0001C76FF0C001F0026A000EAC
:10284A00046E0A0E036EA1EC19F00150300F00015C
:10285A00CB6FF0C001F0026A000E046E0A0E036E1E
:10286A000EEC1BF00150300F0001CC6F010E056E0B
:10287A00010E48EC1DF0CE0E036E000E046E5DECE8
:10288A001AF0020E056E010E48EC1DF0BD0E036E25
:10289A00000E046E5DEC1AF0D4C069F1D5C06AF17D
:1028AA00D7C06CF1D8C06DF1DAC06FF1DBC070F13E
:1028BA00C3C078F1C4C079F1C6C07BF1C7C07CF14E
:1028CA00CBC07EF1CCC07FF11200096E0950D8B49A
:1028DA0071EF14F073EF14F095EF14F004BE7AEF71
:1028EA0014F078EF14F095EF14F001C005F002C06F
:1028FA0006F003C007F004C008F0051E061E071EF6
:10290A00081E052A000E06220722082205C00BF01F
:10291A0006C00CF007C00DF008C00EF09DEF14F0D1
:10292A0001C00BF002C00CF003C00DF004C00EF0A1
:10293A000150021003100410D8A4A6EF14F0A8EF57
:10294A0014F0B2EF14F0000E016E000E026E000ECB
:10295A00036E000E046E43EF15F0960E0A6EBCEF7E
:10296A0014F00A2AD8900E320D320C320B32000EB5
:10297A000B14056E000E0C14066E000E0D14076E75
:10298A00FE0E0E14086E0550061007100810D8A483
:10299A00D1EF14F0D3EF14F0B6EF14F0E1EF14F026
:1029AA000A2A010E0B26000E0C220D220E22D890A6
:1029BA000E320D320C320B32000E0B14056E000E65
:1029CA000C14066E000E0D14076EFF0E0E14086E20
:1029DA000550061007100810D8A4F6EF14F0F8EF07
:1029EA0014F0D5EF14F000EF15F00A06D8900B3664
:1029FA000C360D360E360DBE05EF15F007EF15F045
:102A0A000FEF15F0020E0A600DEF15F00FEF15F03B
:102A1A00FAEF14F00AB014EF15F016EF15F017EFED
:102A2A0015F00D9ED8900A320AC005F0066A076AA8
:102A3A00086A05C008F0076A066A056A05500B129B
:102A4A0006500C1207500D1208500E120950D8B435
:102A5A0031EF15F033EF15F03BEF15F004BE3AEF06
:102A6A0015F038EF15F03BEF15F00E8E0BC001F0A4
:102A7A000CC002F00DC003F00EC004F01200000EEC
:102A8A00116E000E106E000E0F6E000E0E6E50EFDD
:102A9A0015F0084A092A08C0F6FF09C0F7FF08001E
:102AAA00F550200AD8B45CEF15F05EEF15F04EEF42
:102ABA0015F0F70E0A6EFF0E0B6E08C0F6FF09C07E
:102ACA00F7FF0800F5500C6E0D6A0A500C260B50E1
:102ADA000D220D5009E1050E0C5CD8A077EF15F018
:102AEA0079EF15F04EEF15F083EF15F0000E0F6E2B
:102AFA00010E0E6E084A092AB8EF15F008C0F6FF53
:102B0A0009C0F7FF0800F5500A6E0B6A0B50000A5D
:102B1A00D8B492EF15F0B8EF15F00A502B0AD8B4D2
:102B2A007FEF15F0060AD8B47BEF15F0B8EF15F071
:102B3A0010C001F011C002F0000E046E0A0E036EFE
:102B4A00CEEC1FF008C0F6FF09C0F7FF0800F550E9
:102B5A00015E000E025A300E0124106E000E022091
:102B6A00116E7FEF15F0D00E0A6EFF0E0B6E08C0C5
:102B7A00F6FF09C0F7FF0800F5500C6E0D6A0A50FF
:102B8A000C260B500D220D5009E10A0E0C5CD8A040
:102B9A00D1EF15F0D3EF15F09DEF15F00E500F1091
:102BAA00D8A4DAEF15F0DCEF15F0EAEF15F010C053
:102BBA000AF011C00BF00A1E0B1E0A4A0B2A0AC0A1
:102BCA0008F00BC009F0EEEF15F010C008F011C0C4
:102BDA0009F01200A00E0E6E860E0F6E010E106E18
:102BEA00000E116EE1EC1DF06FEC18F029EC20F0EC
:102BFA00939493969398939A700ED312D350FC0B96
:102C0A000209D36E949CAC9CAC8AAC98AC94B896EE
:102C1A00AB8E0C0EAF6E010E0001BC6F900EBB6F37
:102C2A0020EF16F0B6EC1AF0FB0E0001BB25BB6FC5
:102C3A00FF0EBC21BC6FBCBF2DEF16F0BC5106E1E4
:102C4A00BB05D8B02BEF16F02DEF16F017EF16F0E4
:102C5A00000E026E000E016E000E046E120E036E5E
:102C6A0092EC1EF04EEC20F0060E0001BA6F130E25
:102C7A00B96FAD0EE82EFED7B92FFCD7BA2FFAD707
:102C8A0000D0000E0001BC6FC80EBB6F56EF16F0E5
:102C9A00B2EC1CF0FB0E0001BB25BB6FFF0EBC2182
:102CAA00BC6FBCBF63EF16F0BC5106E1BB05D8B0E0
:102CBA0061EF16F063EF16F04DEF16F0000E026E9C
:102CCA00120E016E000E046E330E036E92EC1EF0AD
:102CDA004EEC20F0060E0001BA6F130EB96FAD0E5E
:102CEA00E82EFED7B92FFCD7BA2FFAD700D010EFAB
:102CFA0016F000EF00F0033404340A6E0A50D8A428
:102D0A0089EF16F08BEF16F095EF16F0000E016EB4
:102D1A00000E026E000E036E000E046E02EF17F034
:102D2A0001C005F002C006F003C007F004C008F0B5
:102D3A00200EA5EF16F0D890083207320632053277
:102D4A00E82EA0EF16F00550096E038EFF0E01164D
:102D5A00FF0E0216FF0E0316000E0416960E0A5EEA
:102D6A000ABEBCEF16F0BAEF16F0D2EF16F00A5010
:102D7A00800A970FD8B0C4EF16F0C6EF16F0C8EF66
:102D8A0016F08BEF16F0D890043203320232013279
:102D9A000A3EC8EF16F0EAEF16F01F0E0A64D8EFE3
:102DAA0016F0DAEF16F0E2EF16F08BEF16F0D89085
:102DBA0001360236033604360A060A50D8A4E8EF6A
:102DCA0016F0EAEF16F0DCEF16F00950D8B4F0EF7F
:102DDA0016F0F2EF16F0FAEF16F0041E031E021EAA
:102DEA00016C000E02220322042201C001F002C07B
:102DFA0002F003C003F004C004F01200000E1A141B
:102E0A00226E000E1B14236E800E1C14246E7F0E7D
:102E1A001D14256E2250231024102510D8A418EF53
:102E2A0017F01AEF17F022EF17F0000E1A6E000EC5
:102E3A001B6E000E1C6E000E1D6E000E1E14226EFE
:102E4A00000E1F14236E800E2014246E7F0E211490
:102E5A00256E2250231024102510D8A437EF17F01E
:102E6A0039EF17F041EF17F0000E1E6E000E1F6EBD
:102E7A00000E206E000E216E1DAE46EF17F048EFD1
:102E8A0017F051EF17F01A6C1B1ED8B01B2A1C1E24
:102E9A00D8B01C2A800E1D5621AE56EF17F058EFF7
:102EAA0017F061EF17F01E6C1F1ED8B01F2A201EE4
:102EBA00D8B0202A800E2156000E1A1A000E1B1AAC
:102ECA00000E1C1A800E1D1A000E1E1A000E1F1A62
:102EDA00000E201A800E211A1E501A5C1F501B5811
:102EEA0020501C5821501D58D8B07EEF17F080EFA3
:102EFA0017F083EF17F0D89084EF17F0D8801200FC
:102F0A00E1C00BF0E2C00CF0E3C00DF0E4C00EF03B
:102F1A0001C00BF002C00CF003C00DF004C00EF0AB
:102F2A000BC005F00CC006F00DC007F00EC008F08B
:102F3A00180EA5EF17F0D89008320732063205327C
:102F4A00E82EA0EF17F00550096E0A6A09500A1018
:102F5A00D8A4B2EF17F0B4EF17F0D4EF17F0D89067
:102F6A000B34056E0C34066E0D34076E0E34086E83
:102F7A000550061007100810D8A4C6EF17F0C8EFBE
:102F8A0017F0CEEF17F0000E026E020E016E03EF7D
:102F9A0018F0000E026E030E016E03EF18F00928F6
:102FAA000A10D8A4DBEF17F0DDEF17F0FFEF17F0E8
:102FBA000BC005F00CC006F00DC007F00EC008F0FB
:102FCA00090ED8900536063607360836E82EE6EF9B
:102FDA0017F00550061007100810D8B4F7EF17F0CD
:102FEA00FAEF17F0010EFBEF17F0000E016E026AFE
:102FFA0003EF18F0000E026E040E016E120001C0FB
:10300A0008F002C009F003C00AF004C00BF005067C
:10301A00D8A00606052806E10628D8A417EF18F056
:10302A0019EF18F026EF18F0000E026E000E016E6E
:10303A006EEF18F0084A092A0A4A0B2A0506D8A090
:10304A00060608C0D9FF09C0DAFFDF50D8B430EF4E
:10305A0018F032EF18F05DEF18F00AC0F6FF0BC057
:10306A00F7FF0800F5500009D8B43EEF18F040EF1A
:10307A0018F05DEF18F005500610D8B447EF18F0B5
:10308A0049EF18F05DEF18F008C0D9FF09C0DAFF60
:10309A00DF50076E0AC0F6FF0BC0F7FF0800F550B5
:1030AA000718D8B45BEF18F05DEF18F01FEF18F0AF
:1030BA0008C0D9FF09C0DAFFDF50076E0AC0F6FF61
:1030CA000BC0F7FF0800F550075C016E026AD8A032
:1030DA00020612000001F8918B908B928C988C9AC0
:1030EA008C9C8C9E949094929598959A959C959E7A
:1030FA00680E056EE40EE82EFED7052EFCD700D02A
:10310A00030EB9EC1EF00D0E056EFC0EE82EFED76E
:10311A00052EFCD7030EB9EC1EF00D0E056EFC0E43
:10312A00E82EFED7052EFCD7030EB9EC1EF00D0EC5
:10313A00056EFC0EE82EFED7052EFCD7020EB9EC62
:10314A001EF00D0E056EFC0EE82EFED7052EFCD7DE
:10315A00280EB9EC1EF0820E056EDE0EE82EFED7A2
:10316A00052EFCD70C0EB9EC1EF0820E056EDE0E93
:10317A00E82EFED7052EFCD7010EB9EC1EF0820E02
:10318A00056EDE0EE82EFED7052EFCD7060EB9EC2C
:10319A001EF0820E056EDE0EE82EFED7052EFCD737
:1031AA00010EB9EC1EF0120003500410D8B4E0EF7F
:1031BA0018F0E2EF18F0EBEF18F003500410D8A45F
:1031CA00E9EF18F0EBEF18F0F0EF18F0015052ECBD
:1031DA0020F03DEF19F020EE09F00350D9260450F3
:1031EA00DA22DE50DE10D8B4FDEF18F0FFEF18F047
:1031FA001AEF19F020EE09F00350D9260450DA220A
:10320A0010EE03F00350E1260450E222DE50E65CA1
:10321A00E650800A096EDE50800A0958D8B018EFC5
:10322A0019F01AEF19F03DEF19F020EE03F00350F0
:10323A00D9260450DA22DECF05F0DDCF06F003C02E
:10324A00D9FF04C0DAFFDECF07F0DDCF08F0055062
:10325A000724D96E06500820DA6E01C0DFFF20EE7F
:10326A0003F00350D9260450DA22DE2A000EDD22AA
:10327A0012000001EBA144EF19F046EF19F050EFEC
:10328A0019F013C00AF014C00BF011C00CF012C0F0
:10329A000DF023EC1FF016BE55EF19F057EF19F099
:1032AA005DEF19F015C01AF016C01BF061EF19F0A6
:1032BA00000E1B6E000E1A6E000E196E000E186EAE
:1032CA0073EF19F0000E026E200E016E11C003F0AA
:1032DA0012C004F0D9EC18F0184A192A1A50185CCE
:1032EA001950800A176E1B50800A1758D8A080EF11
:1032FA0019F082EF19F067EF19F00001EBB188EFCE
:10330A0019F08AEF19F094EF19F013C00AF014C0FB
:10331A000BF011C00CF012C00DF023EC1FF013C01B
:10332A0001F014C002F099EC1FF01A500124116E3A
:10333A001B500220126E1200000E066E04BEAAEF87
:10334A0019F0A8EF19F0B0EF19F0036C041ED8B009
:10335A00042A010E066E02BEB7EF19F0B5EF19F096
:10336A00BDEF19F0016C021ED8B0022A010E061A2E
:10337A00000E086E000E076E03500410D8B4C8EF92
:10338A0019F0CAEF19F0F2EF19F0010E056ED2EF3B
:10339A0019F0D89003360436052A04AED7EF19F08F
:1033AA00D9EF19F0CEEF19F0D89007360836035046
:1033BA00015C04500258D8A0E5EF19F0E7EF19F0C4
:1033CA00ECEF19F00350015E0450025A0780D890BE
:1033DA0004320332052ED9EF19F00650D8B4F8EFAB
:1033EA0019F0FAEF19F0FEEF19F0076C081ED8B0C1
:1033FA00082A07C001F008C002F012003DC01AF006
:10340A003EC01BF03FC01CF040C01DF0000E1E6EF7
:10341A00000E1F6E000E206E420E216E03EC17F096
:10342A00D8A01AEF1AF01CEF1AF03BEF1AF09A0E16
:10343A001A6E990E1B6E0B0E1C6E420E1D6E3DC04F
:10344A001EF03EC01FF03FC020F040C021F003EC48
:10345A0017F0D8A033EF1AF035EF1AF03BEF1AF055
:10346A00819481868198819A5CEF1AF09A0E1A6E7D
:10347A00990E1B6E0B0E1C6E420E1D6E3DC01EF089
:10348A003EC01FF03FC020F040C021F003EC17F00F
:10349A00D8B052EF1AF054EF1AF058EF1AF08184AC
:1034AA00819A5AEF1AF08194818A81968188120052
:1034BA00000E086E0001F88197EF1AF008500324F5
:1034CA00056E000E0420066E05C0F6FF06C0F7FF63
:1034DA00F86A070EF76403D00800F55005D0F6CF56
:1034EA00E1FFF7CFE2FFE750076E07380F0BFFEC5B
:1034FA001CF008500324056E000E0420066E05C059
:10350A00F6FF06C0F7FFF86A070EF76403D0080053
:10351A00F55005D0F6CFE1FFF7CFE2FFE750FFEC19
:10352A001CF0082A08500324056E000E0420066EBB
:10353A0005C0F6FF06C0F7FFF86A070EF76403D066
:10354A000800F55005D0F6CFE1FFF7CFE2FFE750CC
:10355A000009D8A4B3EF1AF0B5EF1AF063EF1AF026
:10356A00120066EC1BF033C0B5F034C0B6F035C0BB
:10357A00B7F036C0B8F0010E056E010E48EC1DF02A
:10358A00010E036E080E046E5DEC1AF0F40E0001D3
:10359A00A06F000EA16F0E0EA26F080EA36FB5C02A
:1035AA00A4F0B6C0A5F0B7C0A6F0B8C0A7F040EC2A
:1035BA001EF0020E056E060E48EC1DF0F40E036EA8
:1035CA00000E046E5DEC1AF0020E056E0C0E48EC4D
:1035DA001DF0260E036E080E046E5DEC1AF0B5C0DF
:1035EA003DF0B6C03EF0B7C03FF0B8C040F003ECC3
:1035FA001AF0F4C056F1F5C057F1F7C059F1F8C006
:10360A005AF1820E5F6EDE0EE82EFED75F2EFCD7D1
:10361A001200000E066E02BE17EF1BF015EF1BF02C
:10362A001DEF1BF0016C021ED8B0022A010E066EB5
:10363A0004BE24EF1BF022EF1BF028EF1BF0036CF3
:10364A00041ED8B0042A03500410D8B42FEF1BF07C
:10365A0031EF1BF055EF1BF0010E056E39EF1BF031
:10366A00D89003360436052A04AE3EEF1BF040EF2D
:10367A001BF035EF1BF00350015C04500258D8A030
:10368A0049EF1BF04BEF1BF04FEF1BF00350015EAD
:10369A000450025AD89004320332052E40EF1BF030
:1036AA000650D8B45BEF1BF05DEF1BF061EF1BF027
:1036BA00016C021ED8B0022A01C001F002C002F059
:1036CA001200000E386E000E376E000E026E000EEB
:1036DA00016E64EC1CF001C037F002C038F037C04C
:1036EA0001F038C002F0000E02BEFF0E036E046E37
:1036FA00010E6AEC14F001C039F002C03AF003C0BE
:10370A003BF004C03CF0000E056E000E066EFA0E89
:10371A00076E430E086E39C001F03AC002F03BC092
:10372A0003F03CC004F095EC0EF001C01AF002C0A0
:10373A001BF003C01CF004C01DF0000E1E6EC00E6C
:10374A001F6E7F0E206E440E216EAAEC10F01AC076
:10375A0039F01BC03AF01CC03BF01DC03CF039C028
:10376A0033F03AC034F03BC035F03CC036F01200BA
:10377A00000E0114096E000E02140A6E800E031464
:10378A000B6E7F0E04140C6E09500A100B100C10ED
:10379A00D8A4D2EF1BF0D4EF1BF0DCEF1BF0000E25
:1037AA00016E000E026E000E036E000E046E000E15
:1037BA000514096E000E06140A6E800E07140B6EAD
:1037CA007F0E08140C6E09500A100B100C10D8A4A6
:1037DA00F1EF1BF0F3EF1BF0FBEF1BF0000E056E91
:1037EA00000E066E000E076E000E086E05500118D8
:1037FA000FE1065002180CE10750031809E10850BE
:10380A000418D8B40BEF1CF00DEF1CF010EF1CF0ED
:10381A00D89011EF1CF0D8801200000E096E000E2D
:10382A000A6E000E0B6E000E0C6E05500610071085
:10383A000810D8B423EF1CF025EF1CF05BEF1CF046
:10384A00010E0D6E2FEF1CF0D8900536063607369E
:10385A0008360D2A08AE34EF1CF036EF1CF029EFBB
:10386A001CF0D89009360A360B360C360550015C26
:10387A00065002580750035808500458D8A048EF79
:10388A001CF04AEF1CF053EF1CF00550015E065085
:10389A00025A0750035A0850045A0980D89008322D
:1038AA000732063205320D2E36EF1CF009C001F040
:1038BA000AC002F00BC003F00CC004F0120001C0F1
:1038CA0003F0D8900336D89003363C0E0316C25044
:1038DA00C30B0310C26EC2B275EF1CF079EF1CF075
:1038EA00036A032A7AEF1CF0036A010E046E032AA4
:1038FA0081EF1CF0D8900436032E7FEF1CF0C2B083
:10390A0089EF1CF08DEF1CF0056A052A8EEF1CF07A
:10391A00056A010E066E052A95EF1CF0D890063648
:10392A00052E93EF1CF006500410C212C2B2A0EF8B
:10393A001CF0A2EF1CF09BEF1CF0C350C4CF03F0A5
:10394A00046A03C004F0036A0310076E0450086E89
:10395A0007C001F008C002F012003CEC20F0D00EC3
:10396A00F1EC1FF0000EF1EC1FF045EC20F0D10E47
:10397A00F1EC1FF008EC20F00001F16F1EEC20F0D2
:10398A0008EC20F00001F26F1EEC20F008EC20F0A9
:10399A000001F36F1EEC20F008EC20F01EEC20F082
:1039AA0008EC20F00001EE6F1EEC20F008EC20F08D
:1039BA000001EF6F1EEC20F008EC20F00001F06F20
:1039CA0013EC20F033EC20F080EC13F066EC1BF0E3
:1039DA0033C03DF034C03EF035C03FF036C040F051
:1039EA0003EC1AF0820E416EDE0EE82EFED7412E4F
:1039FA00FCD71200026E0001F8A102D08B8001D020
:103A0A008B9002C001F0010E0116013A8C50011888
:103A1A00EF0B01188C6E02C001F0D8900132010E32
:103A2A000116013A01468C500118DF0B01188C6E01
:103A3A0002C001F0D8900132D8900132010E01166D
:103A4A00013A014601468C500118BF0B01188C6ED1
:103A5A0002C001F0D8900132D8900132D8900132D8
:103A6A00010E0116013201328C5001187F0B011828
:103A7A008C6E8B9200D08B8200D08B92420EE82EF5
:103A8A00FED700D01200086E63EF1DF00850BF0F7A
:103A9A00B9EC1EF07CEF1DF00850930FB9EC1EF044
:103AAA007CEF1DF00850D30FB9EC1EF07CEF1DF02F
:103ABA0008507F0FB9EC1EF07CEF1DF00550066E22
:103ACA00076A0750000AD8B46DEF1DF05DEF1DF0CC
:103ADA000650020AD8B44BEF1DF0010AD8B451EFD0
:103AEA001DF0070AD8B457EF1DF05DEF1DF0120064
:103AFA00680EF66E3F0EF76E000EF86E01EE50F08D
:103B0A0010EE33F00900F5CFEEFFE550E150FAE18F
:103B1A00C20EF66E3F0EF76E000EF86E00EEBDF0A6
:103B2A0010EE20F00900F5CFEEFFE550E150FAE182
:103B3A0001EE00F0500EEE6AE806FDE10001F86BB6
:103B4A0000EEDDF01B0EEE6AE806FDE1000EF86EEF
:103B5A000001EFEF15F09CC05DF09DC05EF0000E15
:103B6A000001E66F000EE56FCEEF1DF09AC053F02C
:103B7A009BC054F05D0E556E000E566E9EC057F0F7
:103B8A009FC058F07CEC0CF053500001E5275450CC
:103B9A00E6235DC0F6FF5EC0F7FF0800F550000996
:103BAA00D8A4DAEF1DF0DCEF1DF0BBEF1DF0E5C085
:103BBA009AF0E6C09BF0120093809382C79CC78E4E
:103BCA00C68AC650F00B0809C66E000EC56E000EF6
:103BDA00016E120E026E7A0E036E000E046E0EC095
:103BEA0012F00FC013F010C014F011C015F0020E3D
:103BFA00D8901236133614361536E82EFDEF1DF01E
:103C0A0012C005F013C006F014C007F015C008F082
:103C1A0012EC1CF00104C86E120003C007F004C0C5
:103C2A0008F001C009F002C00AF00750056E0850FA
:103C3A00066E074A082A05C0F6FF06C0F7FFF86AAB
:103C4A0009C0D9FF0AC0DAFF094A0A2A070EF7642F
:103C5A0003D00800F55005D0F6CFE1FFF7CFE2FF19
:103C6A00E750DF6EDF50D8A43DEF1EF03FEF1EF0A5
:103C7A001AEF1EF01200A40E0001A86F000EA96F21
:103C8A00A0C0AAF0A1C0ABF0000EAE6F000EAD6FDF
:103C9A00000EB46F000EB36FAA0E9A6F000E9B6FE0
:103CAA00A2C09CF0A3C09DF0A80E9E6F000E9F6F4D
:103CBA00B0EC1DF00001AD51A025D96EAE51A12185
:103CCA00DA6E000EDF6E1200010E076E200E01186A
:103CDA000210D8B473EF1EF075EF1EF08EEF1EF0CF
:103CEA00F70E036EFF0E046E01C005F002C006F067
:103CFA000350052604500622065009E1050E055C0C
:103D0A00D8A08AEF1EF08CEF1EF08EEF1EF0000E88
:103D1A00076E07C001F0026A120001C006F002C075
:103D2A0007F0A9EF1EF0ACA29DEF1EF09FEF1EF068
:103D3A0098EF1EF0500E0624D96E010E0720DA6E97
:103D4A00DF50AD6E064A072A0350065C0750800A08
:103D5A00056E0450800A0558D8A0B6EF1EF0B8EFD9
:103D6A001EF098EF1EF01200046E0001F89104385C
:103D7A000F0BFFEC1CF00450FFEC1CF00404D8B449
:103D8A00C9EF1EF0CBEF1EF0D4EF1EF0020E04189E
:103D9A00D8A4D2EF1EF0D4EF1EF0DCEF1EF0060E10
:103DAA00036E300EE82EFED7032EFCD700D0120089
:103DBA00BF0E096EFF0E0A6E07C00BF008C00CF0AA
:103DCA0009500B260A500C220C5007E11A0E0B5C04
:103DDA00D8B0F2EF1EF0F4EF1EF0FBEF1EF0200E4B
:103DEA000710076E0850086EFFEF1EF007C007F0B5
:103DFA0008C008F01200000E1E1A000E1F1A000E4C
:103E0A00201A800E211A1AC001F01BC002F01CC031
:103E1A0003F01DC004F01EC005F01FC006F020C04C
:103E2A0007F021C008F01CEC0AF001C01AF002C029
:103E3A001BF003C01CF004C01DF01200000E106E2F
:103E4A00000E0F6E34EF1FF00EC001F0026A0CC0B4
:103E5A0003F00DC004F0D9EC18F00F4A102A0F50E5
:103E6A000A24D96E10500B20DA6EDF500E6E0E50F7
:103E7A00D8A442EF1FF044EF1FF029EF1FF0120001
:103E8A00BF0E036EFF0E046E01C005F002C006F0FD
:103E9A00035005260450062206500AE11A0E055C54
:103EAA00D8A05AEF1FF05DEF1FF0010E5EEF1FF072
:103EBA00000E016E026A1200015002100310041073
:103ECA00D8B46AEF1FF06CEF1FF074EF1FF0000E0A
:103EDA00011A000E021A000E031A800E041A01C0FB
:103EEA0001F002C002F003C003F004C004F01200A3
:103EFA00D00E036EFF0E046E01C005F002C006F07C
:103F0A00035005260450062206500AE10A0E055CF3
:103F1A00D8A092EF1FF095EF1FF0010E96EF1FF059
:103F2A00000E016E026A120001C003F002C004F022
:103F3A00A1EF1FF0014A022A01C0D9FF02C0DAFF2D
:103F4A00DF50D8A4ABEF1FF0ADEF1FF09FEF1FF0CB
:103F5A000350015C016E04500258026E120054456F
:103F6A004D503A2078782C787820677261646F73A4
:103F7A0020484F52413A2078783A78783A7878202F
:103F8A00444154453A2078782F78782F78780D0A6A
:013F9A000026
:103F9C0001500302F3CF05F0F4CF06F001500402F8
:103FAC00F350062602500302F350062605C001F01A
:103FBC0006C002F01200444154453A2030302F30F4
:103FCC00302F323030300054494D453A2030303AA1
:103FDC0030303A303000016E9E9601C0C9FF9EA66B
:103FEC00FAEF1FF0FCEF1FF0F5EF1FF01200026E5E
:103FFC0002C001F00F0E011602380F0B0A0DF35020
:10400C00012412009E96C5869EA60FEF20F011EF9C
:10401C0020F00AEF20F0C95012009E96C58AC58880
:10402C009EA61BEF20F01DEF20F016EF20F01200E3
:10403C009E96C59AC5889EA626EF20F028EF20F004
:10404C0021EF20F0120092680E0EC16E920EC06E1F
:10405C00000EC46E000EC36E1200C584C5B439EFD9
:10406C0020F03BEF20F034EF20F01200C580C5B0FB
:10407C0042EF20F044EF20F03DEF20F01200C5821B
:10408C00C5B24BEF20F04DEF20F046EF20F01200C0
:0A409C00010EB9EC1EF01200120034
:020000040020DA
:08000000FFFFFFFFFFFFFFFF00
:020000040030CA
:0E000000000C191EFF8381FF0FC00FE00F40A0
:00000001FF
